{
  "transactions": [
    {
      "hash": "0xf0c2e5e89cc6d33ced154f8621fde335bd249dfb07f9e2c103c5695f01bd1fa3",
      "transactionType": "CALL",
      "contractName": null,
      "contractAddress": "0x1c7d4b196cb0c7b01d743fbc6116a902379c7238",
      "function": "approve(address,uint256)",
      "arguments": [
        "0x000000000022D473030F116dDEE9F6B43aC78BA3",
        "115792089237316195423570985008687907853269984665640564039457584007913129639935"
      ],
      "transaction": {
        "from": "0x499c8bb98c1962aa6329b515f918836024ee746f",
        "to": "0x1c7d4b196cb0c7b01d743fbc6116a902379c7238",
        "gas": "0xdca8",
        "value": "0x0",
        "input": "0x095ea7b3000000000000000000000000000000000022d473030f116ddee9f6b43ac78ba3ffffffffffffffffffffffffffffffffffffffffffffffffffffffffffffffff",
        "nonce": "0x118",
        "chainId": "0xaa36a7"
      },
      "additionalContracts": [],
      "isFixedGasLimit": false
    },
    {
      "hash": "0x8ae9ae5dd5af4557caa166e389254df23e53532585e3c23b15405ec10e152918",
      "transactionType": "CALL",
      "contractName": null,
      "contractAddress": "0x000000000022d473030f116ddee9f6b43ac78ba3",
      "function": "approve(address,address,uint160,uint48)",
      "arguments": [
        "0x1c7D4B196Cb0C7B01d743Fbc6116a902379C7238",
        "0x429ba70129df741B2Ca2a85BC3A2a3328e5c09b4",
        "1461501637330902918203684832716283019655932542975",
        "281474976710655"
      ],
      "transaction": {
        "from": "0x499c8bb98c1962aa6329b515f918836024ee746f",
        "to": "0x000000000022d473030f116ddee9f6b43ac78ba3",
        "gas": "0x96a0",
        "value": "0x0",
        "input": "0x87517c450000000000000000000000001c7d4b196cb0c7b01d743fbc6116a902379c7238000000000000000000000000429ba70129df741b2ca2a85bc3a2a3328e5c09b4000000000000000000000000ffffffffffffffffffffffffffffffffffffffff0000000000000000000000000000000000000000000000000000ffffffffffff",
        "nonce": "0x119",
        "chainId": "0xaa36a7"
      },
      "additionalContracts": [],
      "isFixedGasLimit": false
    },
    {
      "hash": "0x89bb354a1d37be25d3d71771ce854c883a6a96d4d1ee8fa044e7c693f3dfd7c2",
      "transactionType": "CALL",
      "contractName": null,
      "contractAddress": "0xfff9976782d46cc05630d1f6ebab18b2324d6b14",
      "function": "approve(address,uint256)",
      "arguments": [
        "0x000000000022D473030F116dDEE9F6B43aC78BA3",
        "115792089237316195423570985008687907853269984665640564039457584007913129639935"
      ],
      "transaction": {
        "from": "0x499c8bb98c1962aa6329b515f918836024ee746f",
        "to": "0xfff9976782d46cc05630d1f6ebab18b2324d6b14",
        "gas": "0x8e76",
        "value": "0x0",
        "input": "0x095ea7b3000000000000000000000000000000000022d473030f116ddee9f6b43ac78ba3ffffffffffffffffffffffffffffffffffffffffffffffffffffffffffffffff",
        "nonce": "0x11a",
        "chainId": "0xaa36a7"
      },
      "additionalContracts": [],
      "isFixedGasLimit": false
    },
    {
      "hash": "0xf9640a4b27a0b7958ab012cb0f346bb05d97a48526f6d8d86e6996378e9530e1",
      "transactionType": "CALL",
      "contractName": null,
      "contractAddress": "0x000000000022d473030f116ddee9f6b43ac78ba3",
      "function": "approve(address,address,uint160,uint48)",
      "arguments": [
        "0xfFf9976782d46CC05630D1f6eBAb18b2324d6B14",
        "0x429ba70129df741B2Ca2a85BC3A2a3328e5c09b4",
        "1461501637330902918203684832716283019655932542975",
        "281474976710655"
      ],
      "transaction": {
        "from": "0x499c8bb98c1962aa6329b515f918836024ee746f",
        "to": "0x000000000022d473030f116ddee9f6b43ac78ba3",
        "gas": "0x96a0",
        "value": "0x0",
        "input": "0x87517c45000000000000000000000000fff9976782d46cc05630d1f6ebab18b2324d6b14000000000000000000000000429ba70129df741b2ca2a85bc3a2a3328e5c09b4000000000000000000000000ffffffffffffffffffffffffffffffffffffffff0000000000000000000000000000000000000000000000000000ffffffffffff",
        "nonce": "0x11b",
        "chainId": "0xaa36a7"
      },
      "additionalContracts": [],
      "isFixedGasLimit": false
    },
    {
      "hash": "0x40bf098e8e4ccf549d0c24b0e39b7efc181bca0dea894a35160e80817fe89ff7",
      "transactionType": "CALL",
      "contractName": null,
      "contractAddress": "0x429ba70129df741b2ca2a85bc3a2a3328e5c09b4",
      "function": "multicall(bytes[])",
      "arguments": [
        "[0xdd46508f000000000000000000000000000000000000000000000000000000000000004000000000000000000000000000000000000000000000000000000000697de17c0000000000000000000000000000000000000000000000000000000000000400000000000000000000000000000000000000000000000000000000000000004000000000000000000000000000000000000000000000000000000000000000800000000000000000000000000000000000000000000000000000000000000004020d14140000000000000000000000000000000000000000000000000000000000000000000000000000000000000000000000000000000000000000000000040000000000000000000000000000000000000000000000000000000000000080000000000000000000000000000000000000000000000000000000000000024000000000000000000000000000000000000000000000000000000000000002a0000000000000000000000000000000000000000000000000000000000000030000000000000000000000000000000000000000000000000000000000000001a00000000000000000000000001c7d4b196cb0c7b01d743fbc6116a902379c7238000000000000000000000000fff9976782d46cc05630d1f6ebab18b2324d6b140000000000000000000000000000000000000000000000000000000000000bb8000000000000000000000000000000000000000000000000000000000000003c00000000000000000000000080f33c8fa104a0c14112fba1f2577df69dcdc500ffffffffffffffffffffffffffffffffffffffffffffffffffffffffffff15a0000000000000000000000000000000000000000000000000000000000000ea60000000000000000000000000000000000000000000000000000000000000cd8c000000000000000000000000000000000000000000000000000000000000c35100000000000000000000000000000000000000000000000000b1a2bc2ec50001000000000000000000000000499c8bb98c1962aa6329b515f918836024ee746f0000000000000000000000000000000000000000000000000000000000000180000000000000000000000000000000000000000000000000000000000000000000000000000000000000000000000000000000000000000000000000000000400000000000000000000000001c7d4b196cb0c7b01d743fbc6116a902379c7238000000000000000000000000fff9976782d46cc05630d1f6ebab18b2324d6b1400000000000000000000000000000000000000000000000000000000000000400000000000000000000000001c7d4b196cb0c7b01d743fbc6116a902379c7238000000000000000000000000499c8bb98c1962aa6329b515f918836024ee746f0000000000000000000000000000000000000000000000000000000000000040000000000000000000000000fff9976782d46cc05630d1f6ebab18b2324d6b14000000000000000000000000499c8bb98c1962aa6329b515f918836024ee746f]"
      ],
      "transaction": {
        "from": "0x499c8bb98c1962aa6329b515f918836024ee746f",
        "to": "0x429ba70129df741b2ca2a85bc3a2a3328e5c09b4",
        "gas": "0x757be",
        "value": "0x0",
        "input": "0xac9650d80000000000000000000000000000000000000000000000000000000000000020000000000000000000000000000000000000000000000000000000000000000100000000000000000000000000000000000000000000000000000000000000200000000000000000000000000000000000000000000000000000000000000464dd46508f000000000000000000000000000000000000000000000000000000000000004000000000000000000000000000000000000000000000000000000000697de17c0000000000000000000000000000000000000000000000000000000000000400000000000000000000000000000000000000000000000000000000000000004000000000000000000000000000000000000000000000000000000000000000800000000000000000000000000000000000000000000000000000000000000004020d14140000000000000000000000000000000000000000000000000000000000000000000000000000000000000000000000000000000000000000000000040000000000000000000000000000000000000000000000000000000000000080000000000000000000000000000000000000000000000000000000000000024000000000000000000000000000000000000000000000000000000000000002a0000000000000000000000000000000000000000000000000000000000000030000000000000000000000000000000000000000000000000000000000000001a00000000000000000000000001c7d4b196cb0c7b01d743fbc6116a902379c7238000000000000000000000000fff9976782d46cc05630d1f6ebab18b2324d6b140000000000000000000000000000000000000000000000000000000000000bb8000000000000000000000000000000000000000000000000000000000000003c00000000000000000000000080f33c8fa104a0c14112fba1f2577df69dcdc500ffffffffffffffffffffffffffffffffffffffffffffffffffffffffffff15a0000000000000000000000000000000000000000000000000000000000000ea60000000000000000000000000000000000000000000000000000000000000cd8c000000000000000000000000000000000000000000000000000000000000c35100000000000000000000000000000000000000000000000000b1a2bc2ec50001000000000000000000000000499c8bb98c1962aa6329b515f918836024ee746f0000000000000000000000000000000000000000000000000000000000000180000000000000000000000000000000000000000000000000000000000000000000000000000000000000000000000000000000000000000000000000000000400000000000000000000000001c7d4b196cb0c7b01d743fbc6116a902379c7238000000000000000000000000fff9976782d46cc05630d1f6ebab18b2324d6b1400000000000000000000000000000000000000000000000000000000000000400000000000000000000000001c7d4b196cb0c7b01d743fbc6116a902379c7238000000000000000000000000499c8bb98c1962aa6329b515f918836024ee746f0000000000000000000000000000000000000000000000000000000000000040000000000000000000000000fff9976782d46cc05630d1f6ebab18b2324d6b14000000000000000000000000499c8bb98c1962aa6329b515f918836024ee746f00000000000000000000000000000000000000000000000000000000",
        "nonce": "0x11c",
        "chainId": "0xaa36a7"
      },
      "additionalContracts": [],
      "isFixedGasLimit": false
    }
  ],
  "receipts": [
    {
      "status": "0x1",
      "cumulativeGasUsed": "0x8066b0",
      "logs": [
        {
          "address": "0x1c7d4b196cb0c7b01d743fbc6116a902379c7238",
          "topics": [
            "0x8c5be1e5ebec7d5bd14f71427d1e84f3dd0314c0f7b2291e5b200ac8c7c3b925",
            "0x000000000000000000000000499c8bb98c1962aa6329b515f918836024ee746f",
            "0x000000000000000000000000000000000022d473030f116ddee9f6b43ac78ba3"
          ],
          "data": "0xffffffffffffffffffffffffffffffffffffffffffffffffffffffffffffffff",
          "blockHash": "0x8c7fe35f5b9a07a1588510bfb5232c65d0c101d7ca26870d60ec8bf4a7aab6da",
          "blockNumber": "0x9b0ec5",
          "blockTimestamp": "0x697de158",
          "transactionHash": "0xf0c2e5e89cc6d33ced154f8621fde335bd249dfb07f9e2c103c5695f01bd1fa3",
          "transactionIndex": "0x41",
          "logIndex": "0x94",
          "removed": false
        }
      ],
      "logsBloom": "0x00000000000000000000000000000000000000000000000000000000000200000000000000000000000000000000000000000000800000000000000000200000000000000000000000004000000000000000000000000800000000000000000000000000000000000000000000000000000000000000004000000000000000000000000000100000000000000000080000000000000000000000000000000000020000000000000000000000000000000000000000000000000000000000000000000000000000000000000000000000000000000000000000000000000000000010000000000000000010000800000000000000000000000000000000000000",
      "type": "0x2",
      "transactionHash": "0xf0c2e5e89cc6d33ced154f8621fde335bd249dfb07f9e2c103c5695f01bd1fa3",
      "transactionIndex": "0x41",
      "blockHash": "0x8c7fe35f5b9a07a1588510bfb5232c65d0c101d7ca26870d60ec8bf4a7aab6da",
      "blockNumber": "0x9b0ec5",
      "gasUsed": "0x96e1",
      "effectiveGasPrice": "0x40f145c5",
      "from": "0x499c8bb98c1962aa6329b515f918836024ee746f",
      "to": "0x1c7d4b196cb0c7b01d743fbc6116a902379c7238",
      "contractAddress": null
    },
    {
      "status": "0x1",
      "cumulativeGasUsed": "0x844cd4",
      "logs": [
        {
          "address": "0x000000000022d473030f116ddee9f6b43ac78ba3",
          "topics": [
            "0xda9fa7c1b00402c17d0161b249b1ab8bbec047c5a52207b9c112deffd817036b",
            "0x000000000000000000000000499c8bb98c1962aa6329b515f918836024ee746f",
            "0x0000000000000000000000001c7d4b196cb0c7b01d743fbc6116a902379c7238",
            "0x000000000000000000000000429ba70129df741b2ca2a85bc3a2a3328e5c09b4"
          ],
          "data": "0x000000000000000000000000ffffffffffffffffffffffffffffffffffffffff0000000000000000000000000000000000000000000000000000ffffffffffff",
          "blockHash": "0x8c7fe35f5b9a07a1588510bfb5232c65d0c101d7ca26870d60ec8bf4a7aab6da",
          "blockNumber": "0x9b0ec5",
          "blockTimestamp": "0x697de158",
          "transactionHash": "0x8ae9ae5dd5af4557caa166e389254df23e53532585e3c23b15405ec10e152918",
          "transactionIndex": "0x44",
          "logIndex": "0x98",
          "removed": false
        }
      ],
      "logsBloom": "0x00010000000000000000000000000000000000000000000000000000000000000000000000000040080000000000000000000000000004000000000000080000100000000000000000000000000000000000000000000000000000000000000000000000000000000000000000000000000000000000004000000800000000000020000000000000000000000000080000000000000000000000000000000000000000000000000000000000000000000000008000000000000000080000000000000000000000000000000000000000000000000000000040000000000000000000000000000000000000000800000000000000000000000000000000000400",
      "type": "0x2",
      "transactionHash": "0x8ae9ae5dd5af4557caa166e389254df23e53532585e3c23b15405ec10e152918",
      "transactionIndex": "0x44",
      "blockHash": "0x8c7fe35f5b9a07a1588510bfb5232c65d0c101d7ca26870d60ec8bf4a7aab6da",
      "blockNumber": "0x9b0ec5",
      "gasUsed": "0x6d0e",
      "effectiveGasPrice": "0x40f145c5",
      "from": "0x499c8bb98c1962aa6329b515f918836024ee746f",
      "to": "0x000000000022d473030f116ddee9f6b43ac78ba3",
      "contractAddress": null
    },
    {
      "status": "0x1",
      "cumulativeGasUsed": "0x84b3f8",
      "logs": [
        {
          "address": "0xfff9976782d46cc05630d1f6ebab18b2324d6b14",
          "topics": [
            "0x8c5be1e5ebec7d5bd14f71427d1e84f3dd0314c0f7b2291e5b200ac8c7c3b925",
            "0x000000000000000000000000499c8bb98c1962aa6329b515f918836024ee746f",
            "0x000000000000000000000000000000000022d473030f116ddee9f6b43ac78ba3"
          ],
          "data": "0xffffffffffffffffffffffffffffffffffffffffffffffffffffffffffffffff",
          "blockHash": "0x8c7fe35f5b9a07a1588510bfb5232c65d0c101d7ca26870d60ec8bf4a7aab6da",
          "blockNumber": "0x9b0ec5",
          "blockTimestamp": "0x697de158",
          "transactionHash": "0x89bb354a1d37be25d3d71771ce854c883a6a96d4d1ee8fa044e7c693f3dfd7c2",
          "transactionIndex": "0x45",
          "logIndex": "0x99",
          "removed": false
        }
      ],
      "logsBloom": "0x00000000000000000000000000000000000000000000000000000000000000000000000000000000000000000000000000000000800000000000000000200000000000000000000000004000000000000000000000000800000000000000000000000000000000000000000000000000000000000000004000000000000000000040000000000000000000000000080000000000000000000000000000000000020020000000000000000000000000000000000000000000000000000000000000000000000000000002000000000000000000000000000000000000000000000010000000000000000000000800000000000000000000000000000000000000",
      "type": "0x2",
      "transactionHash": "0x89bb354a1d37be25d3d71771ce854c883a6a96d4d1ee8fa044e7c693f3dfd7c2",
      "transactionIndex": "0x45",
      "blockHash": "0x8c7fe35f5b9a07a1588510bfb5232c65d0c101d7ca26870d60ec8bf4a7aab6da",
      "blockNumber": "0x9b0ec5",
      "gasUsed": "0x6724",
      "effectiveGasPrice": "0x40f145c5",
      "from": "0x499c8bb98c1962aa6329b515f918836024ee746f",
      "to": "0xfff9976782d46cc05630d1f6ebab18b2324d6b14",
      "contractAddress": null
    },
    {
      "status": "0x1",
      "cumulativeGasUsed": "0x852106",
      "logs": [
        {
          "address": "0x000000000022d473030f116ddee9f6b43ac78ba3",
          "topics": [
            "0xda9fa7c1b00402c17d0161b249b1ab8bbec047c5a52207b9c112deffd817036b",
            "0x000000000000000000000000499c8bb98c1962aa6329b515f918836024ee746f",
            "0x000000000000000000000000fff9976782d46cc05630d1f6ebab18b2324d6b14",
            "0x000000000000000000000000429ba70129df741b2ca2a85bc3a2a3328e5c09b4"
          ],
          "data": "0x000000000000000000000000ffffffffffffffffffffffffffffffffffffffff0000000000000000000000000000000000000000000000000000ffffffffffff",
          "blockHash": "0x8c7fe35f5b9a07a1588510bfb5232c65d0c101d7ca26870d60ec8bf4a7aab6da",
          "blockNumber": "0x9b0ec5",
          "blockTimestamp": "0x697de158",
          "transactionHash": "0xf9640a4b27a0b7958ab012cb0f346bb05d97a48526f6d8d86e6996378e9530e1",
          "transactionIndex": "0x46",
          "logIndex": "0x9a",
          "removed": false
        }
      ],
      "logsBloom": "0x00010000001000000000000000000000000000000000000000000000000000000000000000000040080000000000000000000800000000000000000000080000000000000000000000000000000000000000000000000000000000000000000000000000000000000000000000000000000000000000004000000800000000000020000000000000000000000000080000000000000000000000000000000000000000000000000000000000000000000000000000000000000000080000000000000000000000000000000001000000000000000000000040000000000000000000000000000000000000000800000000000000000000000000000000000400",
      "type": "0x2",
      "transactionHash": "0xf9640a4b27a0b7958ab012cb0f346bb05d97a48526f6d8d86e6996378e9530e1",
      "transactionIndex": "0x46",
      "blockHash": "0x8c7fe35f5b9a07a1588510bfb5232c65d0c101d7ca26870d60ec8bf4a7aab6da",
      "blockNumber": "0x9b0ec5",
      "gasUsed": "0x6d0e",
      "effectiveGasPrice": "0x40f145c5",
      "from": "0x499c8bb98c1962aa6329b515f918836024ee746f",
      "to": "0x000000000022d473030f116ddee9f6b43ac78ba3",
      "contractAddress": null
    },
    {
      "status": "0x1",
      "cumulativeGasUsed": "0x8a71ed",
      "logs": [
        {
          "address": "0x429ba70129df741b2ca2a85bc3a2a3328e5c09b4",
          "topics": [
            "0xddf252ad1be2c89b69c2b068fc378daa952ba7f163c4a11628f55a4df523b3ef",
            "0x0000000000000000000000000000000000000000000000000000000000000000",
            "0x000000000000000000000000499c8bb98c1962aa6329b515f918836024ee746f",
            "0x00000000000000000000000000000000000000000000000000000000000058e4"
          ],
          "data": "0x",
          "blockHash": "0x8c7fe35f5b9a07a1588510bfb5232c65d0c101d7ca26870d60ec8bf4a7aab6da",
          "blockNumber": "0x9b0ec5",
          "blockTimestamp": "0x697de158",
          "transactionHash": "0x40bf098e8e4ccf549d0c24b0e39b7efc181bca0dea894a35160e80817fe89ff7",
          "transactionIndex": "0x47",
          "logIndex": "0x9b",
          "removed": false
        },
        {
          "address": "0xe03a1074c86cfedd5c142c4f04f1a1536e203543",
          "topics": [
            "0xf208f4912782fd25c7f114ca3723a2d5dd6f3bcc3ac8db5af63baa85f711d5ec",
            "0x6bde4cab3bba55a9d59ea659d148a25067a169b3f6bed7f8f659a76f5776f16b",
            "0x000000000000000000000000429ba70129df741b2ca2a85bc3a2a3328e5c09b4"
          ],
          "data": "0xffffffffffffffffffffffffffffffffffffffffffffffffffffffffffff15a0000000000000000000000000000000000000000000000000000000000000ea60000000000000000000000000000000000000000000000000000000000000cd8c00000000000000000000000000000000000000000000000000000000000058e4",
          "blockHash": "0x8c7fe35f5b9a07a1588510bfb5232c65d0c101d7ca26870d60ec8bf4a7aab6da",
          "blockNumber": "0x9b0ec5",
          "blockTimestamp": "0x697de158",
          "transactionHash": "0x40bf098e8e4ccf549d0c24b0e39b7efc181bca0dea894a35160e80817fe89ff7",
          "transactionIndex": "0x47",
          "logIndex": "0x9c",
          "removed": false
        },
        {
          "address": "0x80f33c8fa104a0c14112fba1f2577df69dcdc500",
          "topics": [
            "0xf390f40c2064f62062980daf6c9d4fb39b392ccfda15ab7d7c3eac63fdc06d8b",
            "0x000000000000000000000000429ba70129df741b2ca2a85bc3a2a3328e5c09b4",
            "0x6bde4cab3bba55a9d59ea659d148a25067a169b3f6bed7f8f659a76f5776f16b"
          ],
          "data": "0x000000000000000000000000000000000000000000000000000000000000cd8c00000000000000000000000000000000000000000000000000000000697de1580000000000000000000000000000000000000000000000000000000000aa36a7",
          "blockHash": "0x8c7fe35f5b9a07a1588510bfb5232c65d0c101d7ca26870d60ec8bf4a7aab6da",
          "blockNumber": "0x9b0ec5",
          "blockTimestamp": "0x697de158",
          "transactionHash": "0x40bf098e8e4ccf549d0c24b0e39b7efc181bca0dea894a35160e80817fe89ff7",
          "transactionIndex": "0x47",
          "logIndex": "0x9d",
          "removed": false
        },
        {
          "address": "0x1c7d4b196cb0c7b01d743fbc6116a902379c7238",
          "topics": [
            "0xddf252ad1be2c89b69c2b068fc378daa952ba7f163c4a11628f55a4df523b3ef",
            "0x000000000000000000000000499c8bb98c1962aa6329b515f918836024ee746f",
            "0x000000000000000000000000e03a1074c86cfedd5c142c4f04f1a1536e203543"
          ],
          "data": "0x000000000000000000000000000000000000000000000000000000000000c350",
          "blockHash": "0x8c7fe35f5b9a07a1588510bfb5232c65d0c101d7ca26870d60ec8bf4a7aab6da",
          "blockNumber": "0x9b0ec5",
          "blockTimestamp": "0x697de158",
          "transactionHash": "0x40bf098e8e4ccf549d0c24b0e39b7efc181bca0dea894a35160e80817fe89ff7",
          "transactionIndex": "0x47",
          "logIndex": "0x9e",
          "removed": false
        },
        {
          "address": "0xfff9976782d46cc05630d1f6ebab18b2324d6b14",
          "topics": [
            "0xddf252ad1be2c89b69c2b068fc378daa952ba7f163c4a11628f55a4df523b3ef",
            "0x000000000000000000000000499c8bb98c1962aa6329b515f918836024ee746f",
            "0x000000000000000000000000e03a1074c86cfedd5c142c4f04f1a1536e203543"
          ],
          "data": "0x000000000000000000000000000000000000000000000000000000000000c350",
          "blockHash": "0x8c7fe35f5b9a07a1588510bfb5232c65d0c101d7ca26870d60ec8bf4a7aab6da",
          "blockNumber": "0x9b0ec5",
          "blockTimestamp": "0x697de158",
          "transactionHash": "0x40bf098e8e4ccf549d0c24b0e39b7efc181bca0dea894a35160e80817fe89ff7",
          "transactionIndex": "0x47",
          "logIndex": "0x9f",
          "removed": false
        }
      ],
      "logsBloom": "0x00000000000000000000001000000000000000000000000000000000080200004000000000000040084000000000000000000100000000000000000000000000000008000000000000000008000000000000000000000000000080000000000000000000020000000000020080000880000000000000104000000810000000000040000001100000000010000000080000000000080000000000000000000000000024000000000004000000000000000000000000400000000000000000000400000002000000000002000000000000000000002000000000001000000020001000020000000000000010000800000004000000000000010000000000000000",
      "type": "0x2",
      "transactionHash": "0x40bf098e8e4ccf549d0c24b0e39b7efc181bca0dea894a35160e80817fe89ff7",
      "transactionIndex": "0x47",
      "blockHash": "0x8c7fe35f5b9a07a1588510bfb5232c65d0c101d7ca26870d60ec8bf4a7aab6da",
      "blockNumber": "0x9b0ec5",
      "gasUsed": "0x550e7",
      "effectiveGasPrice": "0x40f145c5",
      "from": "0x499c8bb98c1962aa6329b515f918836024ee746f",
      "to": "0x429ba70129df741b2ca2a85bc3a2a3328e5c09b4",
      "contractAddress": null
    }
  ],
  "libraries": [],
  "pending": [],
  "returns": {},
  "timestamp": 1769857367574,
  "chain": 11155111,
  "commit": "7db77c0"
}