{
  "transactions": [
    {
      "hash": "0x55d6e439af3fd9e91f028ea8aa6edee7495aa7f34fbd1a92989d573feea8cff3",
      "transactionType": "CALL",
      "contractName": null,
      "contractAddress": "0x036cbd53842c5426634e7929541ec2318f3dcf7e",
      "function": "approve(address,uint256)",
      "arguments": [
        "0x000000000022D473030F116dDEE9F6B43aC78BA3",
        "115792089237316195423570985008687907853269984665640564039457584007913129639935"
      ],
      "transaction": {
        "from": "0x499c8bb98c1962aa6329b515f918836024ee746f",
        "to": "0x036cbd53842c5426634e7929541ec2318f3dcf7e",
        "gas": "0xdca8",
        "value": "0x0",
        "input": "0x095ea7b3000000000000000000000000000000000022d473030f116ddee9f6b43ac78ba3ffffffffffffffffffffffffffffffffffffffffffffffffffffffffffffffff",
        "nonce": "0x2e",
        "chainId": "0x14a34"
      },
      "additionalContracts": [],
      "isFixedGasLimit": false
    },
    {
      "hash": "0x1976be05d85d493d1e7df1c908cbed9727825a20d928c51f9b3d95baf3b98475",
      "transactionType": "CALL",
      "contractName": null,
      "contractAddress": "0x000000000022d473030f116ddee9f6b43ac78ba3",
      "function": "approve(address,address,uint160,uint48)",
      "arguments": [
        "0x036CbD53842c5426634e7929541eC2318f3dCF7e",
        "0x4B2C77d209D3405F41a037Ec6c77F7F5b8e2ca80",
        "1461501637330902918203684832716283019655932542975",
        "281474976710655"
      ],
      "transaction": {
        "from": "0x499c8bb98c1962aa6329b515f918836024ee746f",
        "to": "0x000000000022d473030f116ddee9f6b43ac78ba3",
        "gas": "0x96a0",
        "value": "0x0",
        "input": "0x87517c45000000000000000000000000036cbd53842c5426634e7929541ec2318f3dcf7e0000000000000000000000004b2c77d209d3405f41a037ec6c77f7f5b8e2ca80000000000000000000000000ffffffffffffffffffffffffffffffffffffffff0000000000000000000000000000000000000000000000000000ffffffffffff",
        "nonce": "0x2f",
        "chainId": "0x14a34"
      },
      "additionalContracts": [],
      "isFixedGasLimit": false
    },
    {
      "hash": "0xc9cf544a416e3f748a46b334c37e84acdb74ba2894dfee925e41d7e633344bf7",
      "transactionType": "CALL",
      "contractName": null,
      "contractAddress": "0x4200000000000000000000000000000000000006",
      "function": "approve(address,uint256)",
      "arguments": [
        "0x000000000022D473030F116dDEE9F6B43aC78BA3",
        "115792089237316195423570985008687907853269984665640564039457584007913129639935"
      ],
      "transaction": {
        "from": "0x499c8bb98c1962aa6329b515f918836024ee746f",
        "to": "0x4200000000000000000000000000000000000006",
        "gas": "0x8e58",
        "value": "0x0",
        "input": "0x095ea7b3000000000000000000000000000000000022d473030f116ddee9f6b43ac78ba3ffffffffffffffffffffffffffffffffffffffffffffffffffffffffffffffff",
        "nonce": "0x30",
        "chainId": "0x14a34"
      },
      "additionalContracts": [],
      "isFixedGasLimit": false
    },
    {
      "hash": "0xabad0b45bffd7ffb8cfbf73eb7a4d9a5ee1b501182619d45f063941d2f91f9ac",
      "transactionType": "CALL",
      "contractName": null,
      "contractAddress": "0x000000000022d473030f116ddee9f6b43ac78ba3",
      "function": "approve(address,address,uint160,uint48)",
      "arguments": [
        "0x4200000000000000000000000000000000000006",
        "0x4B2C77d209D3405F41a037Ec6c77F7F5b8e2ca80",
        "1461501637330902918203684832716283019655932542975",
        "281474976710655"
      ],
      "transaction": {
        "from": "0x499c8bb98c1962aa6329b515f918836024ee746f",
        "to": "0x000000000022d473030f116ddee9f6b43ac78ba3",
        "gas": "0x9576",
        "value": "0x0",
        "input": "0x87517c4500000000000000000000000042000000000000000000000000000000000000060000000000000000000000004b2c77d209d3405f41a037ec6c77f7f5b8e2ca80000000000000000000000000ffffffffffffffffffffffffffffffffffffffff0000000000000000000000000000000000000000000000000000ffffffffffff",
        "nonce": "0x31",
        "chainId": "0x14a34"
      },
      "additionalContracts": [],
      "isFixedGasLimit": false
    },
    {
      "hash": "0x343855ec3ca5c79582de8bfeae562d2bdd730a6d49b787cfe3469960102f5b23",
      "transactionType": "CALL",
      "contractName": null,
      "contractAddress": "0x4b2c77d209d3405f41a037ec6c77f7f5b8e2ca80",
      "function": "multicall(bytes[])",
      "arguments": [
        "[0xf7020405000000000000000000000000036cbd53842c5426634e7929541ec2318f3dcf7e00000000000000000000000042000000000000000000000000000000000000060000000000000000000000000000000000000000000000000000000000000bb8000000000000000000000000000000000000000000000000000000000000003c0000000000000000000000004d85a01c422db1362fecf9df112de42ea5a14500000000000000000000000000000000000000000100000000000000000000000000000000000000000000000000000000000000000000000000000000000000e00000000000000000000000000000000000000000000000000000000000000000, 0xdd46508f000000000000000000000000000000000000000000000000000000000000004000000000000000000000000000000000000000000000000000000000698103280000000000000000000000000000000000000000000000000000000000000400000000000000000000000000000000000000000000000000000000000000004000000000000000000000000000000000000000000000000000000000000000800000000000000000000000000000000000000000000000000000000000000004020d14140000000000000000000000000000000000000000000000000000000000000000000000000000000000000000000000000000000000000000000000040000000000000000000000000000000000000000000000000000000000000080000000000000000000000000000000000000000000000000000000000000024000000000000000000000000000000000000000000000000000000000000002a0000000000000000000000000000000000000000000000000000000000000030000000000000000000000000000000000000000000000000000000000000001a0000000000000000000000000036cbd53842c5426634e7929541ec2318f3dcf7e00000000000000000000000042000000000000000000000000000000000000060000000000000000000000000000000000000000000000000000000000000bb8000000000000000000000000000000000000000000000000000000000000003c0000000000000000000000004d85a01c422db1362fecf9df112de42ea5a14500ffffffffffffffffffffffffffffffffffffffffffffffffffffffffffff5038000000000000000000000000000000000000000000000000000000000000afc8000000000000000000000000000000000000000000000000000000000000da53000000000000000000000000000000000000000000000000000000000000c35100000000000000000000000000000000000000000000000000b1a2bc2ec50001000000000000000000000000499c8bb98c1962aa6329b515f918836024ee746f000000000000000000000000000000000000000000000000000000000000018000000000000000000000000000000000000000000000000000000000000000000000000000000000000000000000000000000000000000000000000000000040000000000000000000000000036cbd53842c5426634e7929541ec2318f3dcf7e00000000000000000000000042000000000000000000000000000000000000060000000000000000000000000000000000000000000000000000000000000040000000000000000000000000036cbd53842c5426634e7929541ec2318f3dcf7e000000000000000000000000499c8bb98c1962aa6329b515f918836024ee746f00000000000000000000000000000000000000000000000000000000000000400000000000000000000000004200000000000000000000000000000000000006000000000000000000000000499c8bb98c1962aa6329b515f918836024ee746f]"
      ],
      "transaction": {
        "from": "0x499c8bb98c1962aa6329b515f918836024ee746f",
        "to": "0x4b2c77d209d3405f41a037ec6c77f7f5b8e2ca80",
        "gas": "0x9bde0",
        "value": "0x0",
        "input": "0xac9650d800000000000000000000000000000000000000000000000000000000000000200000000000000000000000000000000000000000000000000000000000000002000000000000000000000000000000000000000000000000000000000000004000000000000000000000000000000000000000000000000000000000000001800000000000000000000000000000000000000000000000000000000000000104f7020405000000000000000000000000036cbd53842c5426634e7929541ec2318f3dcf7e00000000000000000000000042000000000000000000000000000000000000060000000000000000000000000000000000000000000000000000000000000bb8000000000000000000000000000000000000000000000000000000000000003c0000000000000000000000004d85a01c422db1362fecf9df112de42ea5a14500000000000000000000000000000000000000000100000000000000000000000000000000000000000000000000000000000000000000000000000000000000e00000000000000000000000000000000000000000000000000000000000000000000000000000000000000000000000000000000000000000000000000000000000000000000000000000000000000000000000000000000000000464dd46508f000000000000000000000000000000000000000000000000000000000000004000000000000000000000000000000000000000000000000000000000698103280000000000000000000000000000000000000000000000000000000000000400000000000000000000000000000000000000000000000000000000000000004000000000000000000000000000000000000000000000000000000000000000800000000000000000000000000000000000000000000000000000000000000004020d14140000000000000000000000000000000000000000000000000000000000000000000000000000000000000000000000000000000000000000000000040000000000000000000000000000000000000000000000000000000000000080000000000000000000000000000000000000000000000000000000000000024000000000000000000000000000000000000000000000000000000000000002a0000000000000000000000000000000000000000000000000000000000000030000000000000000000000000000000000000000000000000000000000000001a0000000000000000000000000036cbd53842c5426634e7929541ec2318f3dcf7e00000000000000000000000042000000000000000000000000000000000000060000000000000000000000000000000000000000000000000000000000000bb8000000000000000000000000000000000000000000000000000000000000003c0000000000000000000000004d85a01c422db1362fecf9df112de42ea5a14500ffffffffffffffffffffffffffffffffffffffffffffffffffffffffffff5038000000000000000000000000000000000000000000000000000000000000afc8000000000000000000000000000000000000000000000000000000000000da53000000000000000000000000000000000000000000000000000000000000c35100000000000000000000000000000000000000000000000000b1a2bc2ec50001000000000000000000000000499c8bb98c1962aa6329b515f918836024ee746f000000000000000000000000000000000000000000000000000000000000018000000000000000000000000000000000000000000000000000000000000000000000000000000000000000000000000000000000000000000000000000000040000000000000000000000000036cbd53842c5426634e7929541ec2318f3dcf7e00000000000000000000000042000000000000000000000000000000000000060000000000000000000000000000000000000000000000000000000000000040000000000000000000000000036cbd53842c5426634e7929541ec2318f3dcf7e000000000000000000000000499c8bb98c1962aa6329b515f918836024ee746f00000000000000000000000000000000000000000000000000000000000000400000000000000000000000004200000000000000000000000000000000000006000000000000000000000000499c8bb98c1962aa6329b515f918836024ee746f00000000000000000000000000000000000000000000000000000000",
        "nonce": "0x32",
        "chainId": "0x14a34"
      },
      "additionalContracts": [],
      "isFixedGasLimit": false
    }
  ],
  "receipts": [
    {
      "status": "0x1",
      "cumulativeGasUsed": "0x229e87",
      "logs": [
        {
          "address": "0x036cbd53842c5426634e7929541ec2318f3dcf7e",
          "topics": [
            "0x8c5be1e5ebec7d5bd14f71427d1e84f3dd0314c0f7b2291e5b200ac8c7c3b925",
            "0x000000000000000000000000499c8bb98c1962aa6329b515f918836024ee746f",
            "0x000000000000000000000000000000000022d473030f116ddee9f6b43ac78ba3"
          ],
          "data": "0xffffffffffffffffffffffffffffffffffffffffffffffffffffffffffffffff",
          "blockHash": "0x2a7d0c6735d359cc18ef963e93c530203ed03679938429fdab1fc4848f459bd8",
          "blockNumber": "0x236cb21",
          "blockTimestamp": "0x6980f522",
          "transactionHash": "0x55d6e439af3fd9e91f028ea8aa6edee7495aa7f34fbd1a92989d573feea8cff3",
          "transactionIndex": "0xa",
          "logIndex": "0x7b",
          "removed": false
        }
      ],
      "logsBloom": "0x00000000040000000000000000000000000000000000000000000000000000000000000000000000000000000000000000000000800000000000000000200000000000000000000000004000000000000000000000000800000000000000000800000000000000000000000000000000000000000000004000000000000000000000000000000000000000000000080000000000000000000000000000000000020000000000000000000000000000000000000000000000000000000000000000000000000000000000000000000000000000000000000000000000000000000010000000000000000000000820000000000000000000000000000000000000",
      "type": "0x2",
      "transactionHash": "0x55d6e439af3fd9e91f028ea8aa6edee7495aa7f34fbd1a92989d573feea8cff3",
      "transactionIndex": "0xa",
      "blockHash": "0x2a7d0c6735d359cc18ef963e93c530203ed03679938429fdab1fc4848f459bd8",
      "blockNumber": "0x236cb21",
      "gasUsed": "0x96e1",
      "effectiveGasPrice": "0x124f80",
      "blobGasUsed": "0x79e0",
      "from": "0x499c8bb98c1962aa6329b515f918836024ee746f",
      "to": "0x036cbd53842c5426634e7929541ec2318f3dcf7e",
      "contractAddress": null,
      "daFootprintGasScalar": "0x138",
      "l1BaseFeeScalar": "0x44d",
      "l1BlobBaseFee": "0x3ad8551",
      "l1BlobBaseFeeScalar": "0xa118b",
      "l1Fee": "0x15a1171d6",
      "l1GasPrice": "0x3ab077ca",
      "l1GasUsed": "0x640"
    },
    {
      "status": "0x1",
      "cumulativeGasUsed": "0x230b95",
      "logs": [
        {
          "address": "0x000000000022d473030f116ddee9f6b43ac78ba3",
          "topics": [
            "0xda9fa7c1b00402c17d0161b249b1ab8bbec047c5a52207b9c112deffd817036b",
            "0x000000000000000000000000499c8bb98c1962aa6329b515f918836024ee746f",
            "0x000000000000000000000000036cbd53842c5426634e7929541ec2318f3dcf7e",
            "0x0000000000000000000000004b2c77d209d3405f41a037ec6c77f7f5b8e2ca80"
          ],
          "data": "0x000000000000000000000000ffffffffffffffffffffffffffffffffffffffff0000000000000000000000000000000000000000000000000000ffffffffffff",
          "blockHash": "0x68b891616566db5af9b93794636dd312c9f3a0e37f375dfb79a0091735a7e317",
          "blockNumber": "0x236cb21",
          "blockTimestamp": "0x6980f522",
          "transactionHash": "0x1976be05d85d493d1e7df1c908cbed9727825a20d928c51f9b3d95baf3b98475",
          "transactionIndex": "0xb",
          "logIndex": "0x7c",
          "removed": false
        }
      ],
      "logsBloom": "0x00010000000000010000000000000000000000000000000000000000000000000000000000000000000000000000000000000000000000000008000010080000000000000000000000000000000000000000000000000000000000000000000000000000000000000000000000000000000000000000004000000000000000000020000040000000000000000000080000000000000000000000000000000000000000000000000000000000000000000000000000000000100000080000000000000000000000000000000000000000000000000000000040000000000000000000000000000000000000000840000000000000000000000000000000000400",
      "type": "0x2",
      "transactionHash": "0x1976be05d85d493d1e7df1c908cbed9727825a20d928c51f9b3d95baf3b98475",
      "transactionIndex": "0xb",
      "blockHash": "0x68b891616566db5af9b93794636dd312c9f3a0e37f375dfb79a0091735a7e317",
      "blockNumber": "0x236cb21",
      "gasUsed": "0x6d0e",
      "effectiveGasPrice": "0x124f80",
      "blobGasUsed": "0x8748",
      "from": "0x499c8bb98c1962aa6329b515f918836024ee746f",
      "to": "0x000000000022d473030f116ddee9f6b43ac78ba3",
      "contractAddress": null,
      "daFootprintGasScalar": "0x138",
      "l1BaseFeeScalar": "0x44d",
      "l1BlobBaseFee": "0x3ad8551",
      "l1BlobBaseFeeScalar": "0xa118b",
      "l1Fee": "0x181476fb3",
      "l1GasPrice": "0x3ab077ca",
      "l1GasUsed": "0x6f5"
    },
    {
      "status": "0x1",
      "cumulativeGasUsed": "0x2372a4",
      "logs": [
        {
          "address": "0x4200000000000000000000000000000000000006",
          "topics": [
            "0x8c5be1e5ebec7d5bd14f71427d1e84f3dd0314c0f7b2291e5b200ac8c7c3b925",
            "0x000000000000000000000000499c8bb98c1962aa6329b515f918836024ee746f",
            "0x000000000000000000000000000000000022d473030f116ddee9f6b43ac78ba3"
          ],
          "data": "0xffffffffffffffffffffffffffffffffffffffffffffffffffffffffffffffff",
          "blockHash": "0x68b891616566db5af9b93794636dd312c9f3a0e37f375dfb79a0091735a7e317",
          "blockNumber": "0x236cb21",
          "blockTimestamp": "0x6980f522",
          "transactionHash": "0xc9cf544a416e3f748a46b334c37e84acdb74ba2894dfee925e41d7e633344bf7",
          "transactionIndex": "0xc",
          "logIndex": "0x7d",
          "removed": false
        }
      ],
      "logsBloom": "0x00000000000000000000000000000000000000000000000000040000000000000000000000000000000000100000000000000000800000000000000000200000000000000000000000004000000000000000000000000800000000000000000000000000000000000000000000000000000000000000004000000000000000000000000000000000000000000000080000000000002000000000000000000000020000000000000000000000000000000000000000000000000000000000000000000000000000000000000000000000000000000000000000000000000000000010000000000000000000000800000000000000000000000000000000000000",
      "type": "0x2",
      "transactionHash": "0xc9cf544a416e3f748a46b334c37e84acdb74ba2894dfee925e41d7e633344bf7",
      "transactionIndex": "0xc",
      "blockHash": "0x68b891616566db5af9b93794636dd312c9f3a0e37f375dfb79a0091735a7e317",
      "blockNumber": "0x236cb21",
      "gasUsed": "0x670f",
      "effectiveGasPrice": "0x124f80",
      "blobGasUsed": "0x79e0",
      "from": "0x499c8bb98c1962aa6329b515f918836024ee746f",
      "to": "0x4200000000000000000000000000000000000006",
      "contractAddress": null,
      "daFootprintGasScalar": "0x138",
      "l1BaseFeeScalar": "0x44d",
      "l1BlobBaseFee": "0x3ad8551",
      "l1BlobBaseFeeScalar": "0xa118b",
      "l1Fee": "0x181476fb3",
      "l1GasPrice": "0x3ab077ca",
      "l1GasUsed": "0x640"
    },
    {
      "status": "0x1",
      "cumulativeGasUsed": "0x23deda",
      "logs": [
        {
          "address": "0x000000000022d473030f116ddee9f6b43ac78ba3",
          "topics": [
            "0xda9fa7c1b00402c17d0161b249b1ab8bbec047c5a52207b9c112deffd817036b",
            "0x000000000000000000000000499c8bb98c1962aa6329b515f918836024ee746f",
            "0x0000000000000000000000004200000000000000000000000000000000000006",
            "0x0000000000000000000000004b2c77d209d3405f41a037ec6c77f7f5b8e2ca80"
          ],
          "data": "0x000000000000000000000000ffffffffffffffffffffffffffffffffffffffff0000000000000000000000000000000000000000000000000000ffffffffffff",
          "blockHash": "0x68b891616566db5af9b93794636dd312c9f3a0e37f375dfb79a0091735a7e317",
          "blockNumber": "0x236cb21",
          "blockTimestamp": "0x6980f522",
          "transactionHash": "0xabad0b45bffd7ffb8cfbf73eb7a4d9a5ee1b501182619d45f063941d2f91f9ac",
          "transactionIndex": "0xd",
          "logIndex": "0x7e",
          "removed": false
        }
      ],
      "logsBloom": "0x00010000000000010000000000000000000000000000000000000000000000000000000000000000000000000000000000000000000000000028000010080000000000000000000000000000000000000000000000000000000000000000000000000000000000000000000000000000000010000000004000000000000000000020000000000000000000000000080000000000000000000000000000000000000000000000000000000000000000000000000000000000000000080000000000000000000004000000000000000000000000000000000040000000000000000000000000000000000000000800000000000000000000000000000000000400",
      "type": "0x2",
      "transactionHash": "0xabad0b45bffd7ffb8cfbf73eb7a4d9a5ee1b501182619d45f063941d2f91f9ac",
      "transactionIndex": "0xd",
      "blockHash": "0x68b891616566db5af9b93794636dd312c9f3a0e37f375dfb79a0091735a7e317",
      "blockNumber": "0x236cb21",
      "gasUsed": "0x6c36",
      "effectiveGasPrice": "0x124f80",
      "blobGasUsed": "0x7d88",
      "from": "0x499c8bb98c1962aa6329b515f918836024ee746f",
      "to": "0x000000000022d473030f116ddee9f6b43ac78ba3",
      "contractAddress": null,
      "daFootprintGasScalar": "0x138",
      "l1BaseFeeScalar": "0x44d",
      "l1BlobBaseFee": "0x3ad8551",
      "l1BlobBaseFeeScalar": "0xa118b",
      "l1Fee": "0x181476fb3",
      "l1GasPrice": "0x3ab077ca",
      "l1GasUsed": "0x67c"
    },
    {
      "status": "0x1",
      "cumulativeGasUsed": "0x2aec60",
      "logs": [
        {
          "address": "0x05e73354cfdd6745c338b50bcfdfa3aa6fa03408",
          "topics": [
            "0xdd466e674ea557f56295e2d0218a125ea4b4f0f6f3307b95f85e6110838d6438",
            "0xd995d8c2ab3c658024c216b6064f4e13075216400040100c5929e20c8e44ddfb",
            "0x000000000000000000000000036cbd53842c5426634e7929541ec2318f3dcf7e",
            "0x0000000000000000000000004200000000000000000000000000000000000006"
          ],
          "data": "0x0000000000000000000000000000000000000000000000000000000000000bb8000000000000000000000000000000000000000000000000000000000000003c0000000000000000000000004d85a01c422db1362fecf9df112de42ea5a1450000000000000000000000000000000000000000010000000000000000000000000000000000000000000000000000000000000000000000000000000000000000",
          "blockHash": "0x68b891616566db5af9b93794636dd312c9f3a0e37f375dfb79a0091735a7e317",
          "blockNumber": "0x236cb21",
          "blockTimestamp": "0x6980f522",
          "transactionHash": "0x343855ec3ca5c79582de8bfeae562d2bdd730a6d49b787cfe3469960102f5b23",
          "transactionIndex": "0xe",
          "logIndex": "0x7f",
          "removed": false
        },
        {
          "address": "0x4b2c77d209d3405f41a037ec6c77f7f5b8e2ca80",
          "topics": [
            "0xddf252ad1be2c89b69c2b068fc378daa952ba7f163c4a11628f55a4df523b3ef",
            "0x0000000000000000000000000000000000000000000000000000000000000000",
            "0x000000000000000000000000499c8bb98c1962aa6329b515f918836024ee746f",
            "0x00000000000000000000000000000000000000000000000000000000000040b8"
          ],
          "data": "0x",
          "blockHash": "0x68b891616566db5af9b93794636dd312c9f3a0e37f375dfb79a0091735a7e317",
          "blockNumber": "0x236cb21",
          "blockTimestamp": "0x6980f522",
          "transactionHash": "0x343855ec3ca5c79582de8bfeae562d2bdd730a6d49b787cfe3469960102f5b23",
          "transactionIndex": "0xe",
          "logIndex": "0x80",
          "removed": false
        },
        {
          "address": "0x05e73354cfdd6745c338b50bcfdfa3aa6fa03408",
          "topics": [
            "0xf208f4912782fd25c7f114ca3723a2d5dd6f3bcc3ac8db5af63baa85f711d5ec",
            "0xd995d8c2ab3c658024c216b6064f4e13075216400040100c5929e20c8e44ddfb",
            "0x0000000000000000000000004b2c77d209d3405f41a037ec6c77f7f5b8e2ca80"
          ],
          "data": "0xffffffffffffffffffffffffffffffffffffffffffffffffffffffffffff5038000000000000000000000000000000000000000000000000000000000000afc8000000000000000000000000000000000000000000000000000000000000da5300000000000000000000000000000000000000000000000000000000000040b8",
          "blockHash": "0x68b891616566db5af9b93794636dd312c9f3a0e37f375dfb79a0091735a7e317",
          "blockNumber": "0x236cb21",
          "blockTimestamp": "0x6980f522",
          "transactionHash": "0x343855ec3ca5c79582de8bfeae562d2bdd730a6d49b787cfe3469960102f5b23",
          "transactionIndex": "0xe",
          "logIndex": "0x81",
          "removed": false
        },
        {
          "address": "0x4d85a01c422db1362fecf9df112de42ea5a14500",
          "topics": [
            "0xf390f40c2064f62062980daf6c9d4fb39b392ccfda15ab7d7c3eac63fdc06d8b",
            "0x000000000000000000000000499c8bb98c1962aa6329b515f918836024ee746f",
            "0xd995d8c2ab3c658024c216b6064f4e13075216400040100c5929e20c8e44ddfb"
          ],
          "data": "0x000000000000000000000000000000000000000000000000000000000000da53000000000000000000000000000000000000000000000000000000006980f5220000000000000000000000000000000000000000000000000000000000014a34",
          "blockHash": "0x68b891616566db5af9b93794636dd312c9f3a0e37f375dfb79a0091735a7e317",
          "blockNumber": "0x236cb21",
          "blockTimestamp": "0x6980f522",
          "transactionHash": "0x343855ec3ca5c79582de8bfeae562d2bdd730a6d49b787cfe3469960102f5b23",
          "transactionIndex": "0xe",
          "logIndex": "0x82",
          "removed": false
        },
        {
          "address": "0x036cbd53842c5426634e7929541ec2318f3dcf7e",
          "topics": [
            "0xddf252ad1be2c89b69c2b068fc378daa952ba7f163c4a11628f55a4df523b3ef",
            "0x000000000000000000000000499c8bb98c1962aa6329b515f918836024ee746f",
            "0x00000000000000000000000005e73354cfdd6745c338b50bcfdfa3aa6fa03408"
          ],
          "data": "0x000000000000000000000000000000000000000000000000000000000000c350",
          "blockHash": "0x68b891616566db5af9b93794636dd312c9f3a0e37f375dfb79a0091735a7e317",
          "blockNumber": "0x236cb21",
          "blockTimestamp": "0x6980f522",
          "transactionHash": "0x343855ec3ca5c79582de8bfeae562d2bdd730a6d49b787cfe3469960102f5b23",
          "transactionIndex": "0xe",
          "logIndex": "0x83",
          "removed": false
        },
        {
          "address": "0x4200000000000000000000000000000000000006",
          "topics": [
            "0xddf252ad1be2c89b69c2b068fc378daa952ba7f163c4a11628f55a4df523b3ef",
            "0x000000000000000000000000499c8bb98c1962aa6329b515f918836024ee746f",
            "0x00000000000000000000000005e73354cfdd6745c338b50bcfdfa3aa6fa03408"
          ],
          "data": "0x000000000000000000000000000000000000000000000000000000000000c350",
          "blockHash": "0x68b891616566db5af9b93794636dd312c9f3a0e37f375dfb79a0091735a7e317",
          "blockNumber": "0x236cb21",
          "blockTimestamp": "0x6980f522",
          "transactionHash": "0x343855ec3ca5c79582de8bfeae562d2bdd730a6d49b787cfe3469960102f5b23",
          "transactionIndex": "0xe",
          "logIndex": "0x84",
          "removed": false
        }
      ],
      "logsBloom": "0x00000000040800010000000000000000000000000000010000040000000000000100000100000000000000100000000000000000000000000028000010000800000000000010000000000008000000000000000000100000000080008000000800000000220000000000000000000880000010000000004000000010000000000000000145000008000200000000080000000001002000000000000000200000000004000000000000000000000000000000002000020000100000000000000000000002001004000000000001000000000000000000000000000000000020000000000000000000000000000860000004000000004000010000000000000000",
      "type": "0x2",
      "transactionHash": "0x343855ec3ca5c79582de8bfeae562d2bdd730a6d49b787cfe3469960102f5b23",
      "transactionIndex": "0xe",
      "blockHash": "0x68b891616566db5af9b93794636dd312c9f3a0e37f375dfb79a0091735a7e317",
      "blockNumber": "0x236cb21",
      "gasUsed": "0x70d86",
      "effectiveGasPrice": "0x124f80",
      "blobGasUsed": "0x18870",
      "from": "0x499c8bb98c1962aa6329b515f918836024ee746f",
      "to": "0x4b2c77d209d3405f41a037ec6c77f7f5b8e2ca80",
      "contractAddress": null,
      "daFootprintGasScalar": "0x138",
      "l1BaseFeeScalar": "0x44d",
      "l1BlobBaseFee": "0x3ad8551",
      "l1BlobBaseFeeScalar": "0xa118b",
      "l1Fee": "0x181476fb3",
      "l1GasPrice": "0x3ab077ca",
      "l1GasUsed": "0x1422"
    }
  ],
  "libraries": [],
  "pending": [],
  "returns": {},
  "timestamp": 1770059041047,
  "chain": 84532,
  "commit": "a49bed9"
}