{
  "transactions": [
    {
      "hash": "0x97a2079b1a5b558545578d184468cd52b2d8cd00b54a4201ef9550e3bfc08ba2",
      "transactionType": "CALL",
      "contractName": null,
      "contractAddress": "0x036cbd53842c5426634e7929541ec2318f3dcf7e",
      "function": "approve(address,uint256)",
      "arguments": [
        "0x000000000022D473030F116dDEE9F6B43aC78BA3",
        "115792089237316195423570985008687907853269984665640564039457584007913129639935"
      ],
      "transaction": {
        "from": "0x499c8bb98c1962aa6329b515f918836024ee746f",
        "to": "0x036cbd53842c5426634e7929541ec2318f3dcf7e",
        "gas": "0x12ca9",
        "value": "0x0",
        "input": "0x095ea7b3000000000000000000000000000000000022d473030f116ddee9f6b43ac78ba3ffffffffffffffffffffffffffffffffffffffffffffffffffffffffffffffff",
        "nonce": "0x22",
        "chainId": "0x14a34"
      },
      "additionalContracts": [],
      "isFixedGasLimit": false
    },
    {
      "hash": "0xfa792886107143c97093ec32fae05aeac2e512629eb1a46160798e79d54b7a14",
      "transactionType": "CALL",
      "contractName": null,
      "contractAddress": "0x000000000022d473030f116ddee9f6b43ac78ba3",
      "function": "approve(address,address,uint160,uint48)",
      "arguments": [
        "0x036CbD53842c5426634e7929541eC2318f3dCF7e",
        "0x4B2C77d209D3405F41a037Ec6c77F7F5b8e2ca80",
        "1461501637330902918203684832716283019655932542975",
        "281474976710655"
      ],
      "transaction": {
        "from": "0x499c8bb98c1962aa6329b515f918836024ee746f",
        "to": "0x000000000022d473030f116ddee9f6b43ac78ba3",
        "gas": "0x1112d",
        "value": "0x0",
        "input": "0x87517c45000000000000000000000000036cbd53842c5426634e7929541ec2318f3dcf7e0000000000000000000000004b2c77d209d3405f41a037ec6c77f7f5b8e2ca80000000000000000000000000ffffffffffffffffffffffffffffffffffffffff0000000000000000000000000000000000000000000000000000ffffffffffff",
        "nonce": "0x23",
        "chainId": "0x14a34"
      },
      "additionalContracts": [],
      "isFixedGasLimit": false
    },
    {
      "hash": "0xf243519e842bf9919c27fa03d66443afb9afbe9b53d6c4193517894ac5110635",
      "transactionType": "CALL",
      "contractName": null,
      "contractAddress": "0x4200000000000000000000000000000000000006",
      "function": "approve(address,uint256)",
      "arguments": [
        "0x000000000022D473030F116dDEE9F6B43aC78BA3",
        "115792089237316195423570985008687907853269984665640564039457584007913129639935"
      ],
      "transaction": {
        "from": "0x499c8bb98c1962aa6329b515f918836024ee746f",
        "to": "0x4200000000000000000000000000000000000006",
        "gas": "0x10868",
        "value": "0x0",
        "input": "0x095ea7b3000000000000000000000000000000000022d473030f116ddee9f6b43ac78ba3ffffffffffffffffffffffffffffffffffffffffffffffffffffffffffffffff",
        "nonce": "0x24",
        "chainId": "0x14a34"
      },
      "additionalContracts": [],
      "isFixedGasLimit": false
    },
    {
      "hash": "0xd849b282fd5b2c757e2353e1b58afb481064cde7970b465f442e2ac81091c7b0",
      "transactionType": "CALL",
      "contractName": null,
      "contractAddress": "0x000000000022d473030f116ddee9f6b43ac78ba3",
      "function": "approve(address,address,uint160,uint48)",
      "arguments": [
        "0x4200000000000000000000000000000000000006",
        "0x4B2C77d209D3405F41a037Ec6c77F7F5b8e2ca80",
        "1461501637330902918203684832716283019655932542975",
        "281474976710655"
      ],
      "transaction": {
        "from": "0x499c8bb98c1962aa6329b515f918836024ee746f",
        "to": "0x000000000022d473030f116ddee9f6b43ac78ba3",
        "gas": "0x10ff1",
        "value": "0x0",
        "input": "0x87517c4500000000000000000000000042000000000000000000000000000000000000060000000000000000000000004b2c77d209d3405f41a037ec6c77f7f5b8e2ca80000000000000000000000000ffffffffffffffffffffffffffffffffffffffff0000000000000000000000000000000000000000000000000000ffffffffffff",
        "nonce": "0x25",
        "chainId": "0x14a34"
      },
      "additionalContracts": [],
      "isFixedGasLimit": false
    },
    {
      "hash": "0x3b0e383f892c07e4a2edcb8b1a95d59b9c232257717fa9a8866e2fbb0acc78e8",
      "transactionType": "CALL",
      "contractName": null,
      "contractAddress": "0x4b2c77d209d3405f41a037ec6c77f7f5b8e2ca80",
      "function": "multicall(bytes[])",
      "arguments": [
        "[0xf7020405000000000000000000000000036cbd53842c5426634e7929541ec2318f3dcf7e00000000000000000000000042000000000000000000000000000000000000060000000000000000000000000000000000000000000000000000000000000bb8000000000000000000000000000000000000000000000000000000000000003c000000000000000000000000ce26c2951413f1102187f8665f715870dafa8500000000000000000000000000000000000000000100000000000000000000000000000000000000000000000000000000000000000000000000000000000000e00000000000000000000000000000000000000000000000000000000000000000, 0xdd46508f000000000000000000000000000000000000000000000000000000000000004000000000000000000000000000000000000000000000000000000000697f2c380000000000000000000000000000000000000000000000000000000000000400000000000000000000000000000000000000000000000000000000000000004000000000000000000000000000000000000000000000000000000000000000800000000000000000000000000000000000000000000000000000000000000004020d14140000000000000000000000000000000000000000000000000000000000000000000000000000000000000000000000000000000000000000000000040000000000000000000000000000000000000000000000000000000000000080000000000000000000000000000000000000000000000000000000000000024000000000000000000000000000000000000000000000000000000000000002a0000000000000000000000000000000000000000000000000000000000000030000000000000000000000000000000000000000000000000000000000000001a0000000000000000000000000036cbd53842c5426634e7929541ec2318f3dcf7e00000000000000000000000042000000000000000000000000000000000000060000000000000000000000000000000000000000000000000000000000000bb8000000000000000000000000000000000000000000000000000000000000003c000000000000000000000000ce26c2951413f1102187f8665f715870dafa8500ffffffffffffffffffffffffffffffffffffffffffffffffffffffffffff5038000000000000000000000000000000000000000000000000000000000000afc8000000000000000000000000000000000000000000000000000000000000da53000000000000000000000000000000000000000000000000000000000000c35100000000000000000000000000000000000000000000000000b1a2bc2ec50001000000000000000000000000499c8bb98c1962aa6329b515f918836024ee746f000000000000000000000000000000000000000000000000000000000000018000000000000000000000000000000000000000000000000000000000000000000000000000000000000000000000000000000000000000000000000000000040000000000000000000000000036cbd53842c5426634e7929541ec2318f3dcf7e00000000000000000000000042000000000000000000000000000000000000060000000000000000000000000000000000000000000000000000000000000040000000000000000000000000036cbd53842c5426634e7929541ec2318f3dcf7e000000000000000000000000499c8bb98c1962aa6329b515f918836024ee746f00000000000000000000000000000000000000000000000000000000000000400000000000000000000000004200000000000000000000000000000000000006000000000000000000000000499c8bb98c1962aa6329b515f918836024ee746f]"
      ],
      "transaction": {
        "from": "0x499c8bb98c1962aa6329b515f918836024ee746f",
        "to": "0x4b2c77d209d3405f41a037ec6c77f7f5b8e2ca80",
        "gas": "0xab245",
        "value": "0x0",
        "input": "0xac9650d800000000000000000000000000000000000000000000000000000000000000200000000000000000000000000000000000000000000000000000000000000002000000000000000000000000000000000000000000000000000000000000004000000000000000000000000000000000000000000000000000000000000001800000000000000000000000000000000000000000000000000000000000000104f7020405000000000000000000000000036cbd53842c5426634e7929541ec2318f3dcf7e00000000000000000000000042000000000000000000000000000000000000060000000000000000000000000000000000000000000000000000000000000bb8000000000000000000000000000000000000000000000000000000000000003c000000000000000000000000ce26c2951413f1102187f8665f715870dafa8500000000000000000000000000000000000000000100000000000000000000000000000000000000000000000000000000000000000000000000000000000000e00000000000000000000000000000000000000000000000000000000000000000000000000000000000000000000000000000000000000000000000000000000000000000000000000000000000000000000000000000000000000464dd46508f000000000000000000000000000000000000000000000000000000000000004000000000000000000000000000000000000000000000000000000000697f2c380000000000000000000000000000000000000000000000000000000000000400000000000000000000000000000000000000000000000000000000000000004000000000000000000000000000000000000000000000000000000000000000800000000000000000000000000000000000000000000000000000000000000004020d14140000000000000000000000000000000000000000000000000000000000000000000000000000000000000000000000000000000000000000000000040000000000000000000000000000000000000000000000000000000000000080000000000000000000000000000000000000000000000000000000000000024000000000000000000000000000000000000000000000000000000000000002a0000000000000000000000000000000000000000000000000000000000000030000000000000000000000000000000000000000000000000000000000000001a0000000000000000000000000036cbd53842c5426634e7929541ec2318f3dcf7e00000000000000000000000042000000000000000000000000000000000000060000000000000000000000000000000000000000000000000000000000000bb8000000000000000000000000000000000000000000000000000000000000003c000000000000000000000000ce26c2951413f1102187f8665f715870dafa8500ffffffffffffffffffffffffffffffffffffffffffffffffffffffffffff5038000000000000000000000000000000000000000000000000000000000000afc8000000000000000000000000000000000000000000000000000000000000da53000000000000000000000000000000000000000000000000000000000000c35100000000000000000000000000000000000000000000000000b1a2bc2ec50001000000000000000000000000499c8bb98c1962aa6329b515f918836024ee746f000000000000000000000000000000000000000000000000000000000000018000000000000000000000000000000000000000000000000000000000000000000000000000000000000000000000000000000000000000000000000000000040000000000000000000000000036cbd53842c5426634e7929541ec2318f3dcf7e00000000000000000000000042000000000000000000000000000000000000060000000000000000000000000000000000000000000000000000000000000040000000000000000000000000036cbd53842c5426634e7929541ec2318f3dcf7e000000000000000000000000499c8bb98c1962aa6329b515f918836024ee746f00000000000000000000000000000000000000000000000000000000000000400000000000000000000000004200000000000000000000000000000000000006000000000000000000000000499c8bb98c1962aa6329b515f918836024ee746f00000000000000000000000000000000000000000000000000000000",
        "nonce": "0x26",
        "chainId": "0x14a34"
      },
      "additionalContracts": [],
      "isFixedGasLimit": false
    }
  ],
  "receipts": [
    {
      "status": "0x1",
      "cumulativeGasUsed": "0x4d6aa5",
      "logs": [
        {
          "address": "0x036cbd53842c5426634e7929541ec2318f3dcf7e",
          "topics": [
            "0x8c5be1e5ebec7d5bd14f71427d1e84f3dd0314c0f7b2291e5b200ac8c7c3b925",
            "0x000000000000000000000000499c8bb98c1962aa6329b515f918836024ee746f",
            "0x000000000000000000000000000000000022d473030f116ddee9f6b43ac78ba3"
          ],
          "data": "0xffffffffffffffffffffffffffffffffffffffffffffffffffffffffffffffff",
          "blockHash": "0x74f3114243619c8122f789dc20fa14eaaf9dc383a9ac3638ac92ab7a6f04caa3",
          "blockNumber": "0x235dfaa",
          "blockTimestamp": "0x697f1e34",
          "transactionHash": "0x97a2079b1a5b558545578d184468cd52b2d8cd00b54a4201ef9550e3bfc08ba2",
          "transactionIndex": "0x6",
          "logIndex": "0x3",
          "removed": false
        }
      ],
      "logsBloom": "0x00000000040000000000000000000000000000000000000000000000000000000000000000000000000000000000000000000000800000000000000000200000000000000000000000004000000000000000000000000800000000000000000800000000000000000000000000000000000000000000004000000000000000000000000000000000000000000000080000000000000000000000000000000000020000000000000000000000000000000000000000000000000000000000000000000000000000000000000000000000000000000000000000000000000000000010000000000000000000000820000000000000000000000000000000000000",
      "type": "0x0",
      "transactionHash": "0x97a2079b1a5b558545578d184468cd52b2d8cd00b54a4201ef9550e3bfc08ba2",
      "transactionIndex": "0x6",
      "blockHash": "0x74f3114243619c8122f789dc20fa14eaaf9dc383a9ac3638ac92ab7a6f04caa3",
      "blockNumber": "0x235dfaa",
      "gasUsed": "0xd9ad",
      "effectiveGasPrice": "0x124f80",
      "blobGasUsed": "0x79e0",
      "from": "0x499c8bb98c1962aa6329b515f918836024ee746f",
      "to": "0x036cbd53842c5426634e7929541ec2318f3dcf7e",
      "contractAddress": null,
      "daFootprintGasScalar": "0x138",
      "l1BaseFeeScalar": "0x44d",
      "l1BlobBaseFee": "0x3669352",
      "l1BlobBaseFeeScalar": "0xa118b",
      "l1Fee": "0x1b018b598",
      "l1GasPrice": "0x3c7a2930",
      "l1GasUsed": "0x640"
    },
    {
      "status": "0x1",
      "cumulativeGasUsed": "0x4e256f",
      "logs": [
        {
          "address": "0x000000000022d473030f116ddee9f6b43ac78ba3",
          "topics": [
            "0xda9fa7c1b00402c17d0161b249b1ab8bbec047c5a52207b9c112deffd817036b",
            "0x000000000000000000000000499c8bb98c1962aa6329b515f918836024ee746f",
            "0x000000000000000000000000036cbd53842c5426634e7929541ec2318f3dcf7e",
            "0x0000000000000000000000004b2c77d209d3405f41a037ec6c77f7f5b8e2ca80"
          ],
          "data": "0x000000000000000000000000ffffffffffffffffffffffffffffffffffffffff0000000000000000000000000000000000000000000000000000ffffffffffff",
          "blockHash": "0x74f3114243619c8122f789dc20fa14eaaf9dc383a9ac3638ac92ab7a6f04caa3",
          "blockNumber": "0x235dfaa",
          "blockTimestamp": "0x697f1e34",
          "transactionHash": "0xfa792886107143c97093ec32fae05aeac2e512629eb1a46160798e79d54b7a14",
          "transactionIndex": "0x7",
          "logIndex": "0x4",
          "removed": false
        }
      ],
      "logsBloom": "0x00010000000000010000000000000000000000000000000000000000000000000000000000000000000000000000000000000000000000000008000010080000000000000000000000000000000000000000000000000000000000000000000000000000000000000000000000000000000000000000004000000000000000000020000040000000000000000000080000000000000000000000000000000000000000000000000000000000000000000000000000000000100000080000000000000000000000000000000000000000000000000000000040000000000000000000000000000000000000000840000000000000000000000000000000000400",
      "type": "0x0",
      "transactionHash": "0xfa792886107143c97093ec32fae05aeac2e512629eb1a46160798e79d54b7a14",
      "transactionIndex": "0x7",
      "blockHash": "0x74f3114243619c8122f789dc20fa14eaaf9dc383a9ac3638ac92ab7a6f04caa3",
      "blockNumber": "0x235dfaa",
      "gasUsed": "0xbaca",
      "effectiveGasPrice": "0x124f80",
      "blobGasUsed": "0x8130",
      "from": "0x499c8bb98c1962aa6329b515f918836024ee746f",
      "to": "0x000000000022d473030f116ddee9f6b43ac78ba3",
      "contractAddress": null,
      "daFootprintGasScalar": "0x138",
      "l1BaseFeeScalar": "0x44d",
      "l1BlobBaseFee": "0x3669352",
      "l1BlobBaseFeeScalar": "0xa118b",
      "l1Fee": "0x1b018b598",
      "l1GasPrice": "0x3c7a2930",
      "l1GasUsed": "0x6a4"
    },
    {
      "status": "0x1",
      "cumulativeGasUsed": "0x5fe19a",
      "logs": [
        {
          "address": "0x4200000000000000000000000000000000000006",
          "topics": [
            "0x8c5be1e5ebec7d5bd14f71427d1e84f3dd0314c0f7b2291e5b200ac8c7c3b925",
            "0x000000000000000000000000499c8bb98c1962aa6329b515f918836024ee746f",
            "0x000000000000000000000000000000000022d473030f116ddee9f6b43ac78ba3"
          ],
          "data": "0xffffffffffffffffffffffffffffffffffffffffffffffffffffffffffffffff",
          "blockHash": "0x81d220937275c9e73782b40adddaa3bade083e6d0c52d75e653003b0ed838dda",
          "blockNumber": "0x235dfaa",
          "blockTimestamp": "0x697f1e34",
          "transactionHash": "0xf243519e842bf9919c27fa03d66443afb9afbe9b53d6c4193517894ac5110635",
          "transactionIndex": "0xb",
          "logIndex": "0x21",
          "removed": false
        }
      ],
      "logsBloom": "0x00000000000000000000000000000000000000000000000000040000000000000000000000000000000000100000000000000000800000000000000000200000000000000000000000004000000000000000000000000800000000000000000000000000000000000000000000000000000000000000004000000000000000000000000000000000000000000000080000000000002000000000000000000000020000000000000000000000000000000000000000000000000000000000000000000000000000000000000000000000000000000000000000000000000000000010000000000000000000000800000000000000000000000000000000000000",
      "type": "0x0",
      "transactionHash": "0xf243519e842bf9919c27fa03d66443afb9afbe9b53d6c4193517894ac5110635",
      "transactionIndex": "0xb",
      "blockHash": "0x81d220937275c9e73782b40adddaa3bade083e6d0c52d75e653003b0ed838dda",
      "blockNumber": "0x235dfaa",
      "gasUsed": "0xb4cb",
      "effectiveGasPrice": "0x124f80",
      "blobGasUsed": "0x79e0",
      "from": "0x499c8bb98c1962aa6329b515f918836024ee746f",
      "to": "0x4200000000000000000000000000000000000006",
      "contractAddress": null,
      "daFootprintGasScalar": "0x138",
      "l1BaseFeeScalar": "0x44d",
      "l1BlobBaseFee": "0x3669352",
      "l1BlobBaseFeeScalar": "0xa118b",
      "l1Fee": "0x493376868",
      "l1GasPrice": "0x3c7a2930",
      "l1GasUsed": "0x640"
    },
    {
      "status": "0x1",
      "cumulativeGasUsed": "0x611da2",
      "logs": [
        {
          "address": "0x000000000022d473030f116ddee9f6b43ac78ba3",
          "topics": [
            "0xda9fa7c1b00402c17d0161b249b1ab8bbec047c5a52207b9c112deffd817036b",
            "0x000000000000000000000000499c8bb98c1962aa6329b515f918836024ee746f",
            "0x0000000000000000000000004200000000000000000000000000000000000006",
            "0x0000000000000000000000004b2c77d209d3405f41a037ec6c77f7f5b8e2ca80"
          ],
          "data": "0x000000000000000000000000ffffffffffffffffffffffffffffffffffffffff0000000000000000000000000000000000000000000000000000ffffffffffff",
          "blockHash": "0x2148256695fde8ccf7d22d776f638c576a9096960fe84eefe1c55d84db3c3c12",
          "blockNumber": "0x235dfaa",
          "blockTimestamp": "0x697f1e34",
          "transactionHash": "0xd849b282fd5b2c757e2353e1b58afb481064cde7970b465f442e2ac81091c7b0",
          "transactionIndex": "0xd",
          "logIndex": "0x22",
          "removed": false
        }
      ],
      "logsBloom": "0x00010000000000010000000000000000000000000000000000000000000000000000000000000000000000000000000000000000000000000028000010080000000000000000000000000000000000000000000000000000000000000000000000000000000000000000000000000000000010000000004000000000000000000020000000000000000000000000080000000000000000000000000000000000000000000000000000000000000000000000000000000000000000080000000000000000000004000000000000000000000000000000000040000000000000000000000000000000000000000800000000000000000000000000000000000400",
      "type": "0x0",
      "transactionHash": "0xd849b282fd5b2c757e2353e1b58afb481064cde7970b465f442e2ac81091c7b0",
      "transactionIndex": "0xd",
      "blockHash": "0x2148256695fde8ccf7d22d776f638c576a9096960fe84eefe1c55d84db3c3c12",
      "blockNumber": "0x235dfaa",
      "gasUsed": "0xb9f2",
      "effectiveGasPrice": "0x124f80",
      "blobGasUsed": "0x79e0",
      "from": "0x499c8bb98c1962aa6329b515f918836024ee746f",
      "to": "0x000000000022d473030f116ddee9f6b43ac78ba3",
      "contractAddress": null,
      "daFootprintGasScalar": "0x138",
      "l1BaseFeeScalar": "0x44d",
      "l1BlobBaseFee": "0x3669352",
      "l1BlobBaseFeeScalar": "0xa118b",
      "l1Fee": "0x14aee6252",
      "l1GasPrice": "0x3c7a2930",
      "l1GasUsed": "0x640"
    },
    {
      "status": "0x1",
      "cumulativeGasUsed": "0x686df5",
      "logs": [
        {
          "address": "0x05e73354cfdd6745c338b50bcfdfa3aa6fa03408",
          "topics": [
            "0xdd466e674ea557f56295e2d0218a125ea4b4f0f6f3307b95f85e6110838d6438",
            "0x9f66b0591cf862c4a877d722e6f042103a4d50b45155b963427dafd7963c1a35",
            "0x000000000000000000000000036cbd53842c5426634e7929541ec2318f3dcf7e",
            "0x0000000000000000000000004200000000000000000000000000000000000006"
          ],
          "data": "0x0000000000000000000000000000000000000000000000000000000000000bb8000000000000000000000000000000000000000000000000000000000000003c000000000000000000000000ce26c2951413f1102187f8665f715870dafa850000000000000000000000000000000000000000010000000000000000000000000000000000000000000000000000000000000000000000000000000000000000",
          "blockHash": "0x2148256695fde8ccf7d22d776f638c576a9096960fe84eefe1c55d84db3c3c12",
          "blockNumber": "0x235dfaa",
          "blockTimestamp": "0x697f1e34",
          "transactionHash": "0x3b0e383f892c07e4a2edcb8b1a95d59b9c232257717fa9a8866e2fbb0acc78e8",
          "transactionIndex": "0xe",
          "logIndex": "0x23",
          "removed": false
        },
        {
          "address": "0x4b2c77d209d3405f41a037ec6c77f7f5b8e2ca80",
          "topics": [
            "0xddf252ad1be2c89b69c2b068fc378daa952ba7f163c4a11628f55a4df523b3ef",
            "0x0000000000000000000000000000000000000000000000000000000000000000",
            "0x000000000000000000000000499c8bb98c1962aa6329b515f918836024ee746f",
            "0x000000000000000000000000000000000000000000000000000000000000408b"
          ],
          "data": "0x",
          "blockHash": "0x2148256695fde8ccf7d22d776f638c576a9096960fe84eefe1c55d84db3c3c12",
          "blockNumber": "0x235dfaa",
          "blockTimestamp": "0x697f1e34",
          "transactionHash": "0x3b0e383f892c07e4a2edcb8b1a95d59b9c232257717fa9a8866e2fbb0acc78e8",
          "transactionIndex": "0xe",
          "logIndex": "0x24",
          "removed": false
        },
        {
          "address": "0x05e73354cfdd6745c338b50bcfdfa3aa6fa03408",
          "topics": [
            "0xf208f4912782fd25c7f114ca3723a2d5dd6f3bcc3ac8db5af63baa85f711d5ec",
            "0x9f66b0591cf862c4a877d722e6f042103a4d50b45155b963427dafd7963c1a35",
            "0x0000000000000000000000004b2c77d209d3405f41a037ec6c77f7f5b8e2ca80"
          ],
          "data": "0xffffffffffffffffffffffffffffffffffffffffffffffffffffffffffff5038000000000000000000000000000000000000000000000000000000000000afc8000000000000000000000000000000000000000000000000000000000000da53000000000000000000000000000000000000000000000000000000000000408b",
          "blockHash": "0x2148256695fde8ccf7d22d776f638c576a9096960fe84eefe1c55d84db3c3c12",
          "blockNumber": "0x235dfaa",
          "blockTimestamp": "0x697f1e34",
          "transactionHash": "0x3b0e383f892c07e4a2edcb8b1a95d59b9c232257717fa9a8866e2fbb0acc78e8",
          "transactionIndex": "0xe",
          "logIndex": "0x25",
          "removed": false
        },
        {
          "address": "0xce26c2951413f1102187f8665f715870dafa8500",
          "topics": [
            "0xf390f40c2064f62062980daf6c9d4fb39b392ccfda15ab7d7c3eac63fdc06d8b",
            "0x0000000000000000000000004b2c77d209d3405f41a037ec6c77f7f5b8e2ca80",
            "0x9f66b0591cf862c4a877d722e6f042103a4d50b45155b963427dafd7963c1a35"
          ],
          "data": "0x000000000000000000000000000000000000000000000000000000000000da5300000000000000000000000000000000000000000000000000000000697f1e340000000000000000000000000000000000000000000000000000000000014a34",
          "blockHash": "0x2148256695fde8ccf7d22d776f638c576a9096960fe84eefe1c55d84db3c3c12",
          "blockNumber": "0x235dfaa",
          "blockTimestamp": "0x697f1e34",
          "transactionHash": "0x3b0e383f892c07e4a2edcb8b1a95d59b9c232257717fa9a8866e2fbb0acc78e8",
          "transactionIndex": "0xe",
          "logIndex": "0x26",
          "removed": false
        },
        {
          "address": "0x036cbd53842c5426634e7929541ec2318f3dcf7e",
          "topics": [
            "0xddf252ad1be2c89b69c2b068fc378daa952ba7f163c4a11628f55a4df523b3ef",
            "0x000000000000000000000000499c8bb98c1962aa6329b515f918836024ee746f",
            "0x00000000000000000000000005e73354cfdd6745c338b50bcfdfa3aa6fa03408"
          ],
          "data": "0x000000000000000000000000000000000000000000000000000000000000c350",
          "blockHash": "0x2148256695fde8ccf7d22d776f638c576a9096960fe84eefe1c55d84db3c3c12",
          "blockNumber": "0x235dfaa",
          "blockTimestamp": "0x697f1e34",
          "transactionHash": "0x3b0e383f892c07e4a2edcb8b1a95d59b9c232257717fa9a8866e2fbb0acc78e8",
          "transactionIndex": "0xe",
          "logIndex": "0x27",
          "removed": false
        },
        {
          "address": "0x4200000000000000000000000000000000000006",
          "topics": [
            "0xddf252ad1be2c89b69c2b068fc378daa952ba7f163c4a11628f55a4df523b3ef",
            "0x000000000000000000000000499c8bb98c1962aa6329b515f918836024ee746f",
            "0x00000000000000000000000005e73354cfdd6745c338b50bcfdfa3aa6fa03408"
          ],
          "data": "0x000000000000000000000000000000000000000000000000000000000000c350",
          "blockHash": "0x2148256695fde8ccf7d22d776f638c576a9096960fe84eefe1c55d84db3c3c12",
          "blockNumber": "0x235dfaa",
          "blockTimestamp": "0x697f1e34",
          "transactionHash": "0x3b0e383f892c07e4a2edcb8b1a95d59b9c232257717fa9a8866e2fbb0acc78e8",
          "transactionIndex": "0xe",
          "logIndex": "0x28",
          "removed": false
        }
      ],
      "logsBloom": "0x00000000040000010000000000000000000000000000000000040000000000020100000100000040000000100000000000000000000000000028000010000800000000000010000000000008000000000000000000100000000080008000000800000000020000000000000000000880000010000000004010000010000000000400000045000008000000000000080000000001002000000000004000200000000004000000000000000000000000000000000000000010100000000000000000000002001004000000000000000000000000000000000000000000000020000000000000400000000000400860000004000000000000010000000000000001",
      "type": "0x0",
      "transactionHash": "0x3b0e383f892c07e4a2edcb8b1a95d59b9c232257717fa9a8866e2fbb0acc78e8",
      "transactionIndex": "0xe",
      "blockHash": "0x2148256695fde8ccf7d22d776f638c576a9096960fe84eefe1c55d84db3c3c12",
      "blockNumber": "0x235dfaa",
      "gasUsed": "0x75053",
      "effectiveGasPrice": "0x124f80",
      "blobGasUsed": "0x18120",
      "from": "0x499c8bb98c1962aa6329b515f918836024ee746f",
      "to": "0x4b2c77d209d3405f41a037ec6c77f7f5b8e2ca80",
      "contractAddress": null,
      "daFootprintGasScalar": "0x138",
      "l1BaseFeeScalar": "0x44d",
      "l1BlobBaseFee": "0x3669352",
      "l1BlobBaseFeeScalar": "0xa118b",
      "l1Fee": "0x14aee6252",
      "l1GasPrice": "0x3c7a2930",
      "l1GasUsed": "0x13c4"
    }
  ],
  "libraries": [],
  "pending": [],
  "returns": {},
  "timestamp": 1769938483151,
  "chain": 84532,
  "commit": "a5a6422"
}