{
  "transactions": [
    {
      "hash": "0x7091b43e2ff655555ba9a2e06379653271eaa7ed222489d43aa3de1ee9242fbf",
      "transactionType": "CALL",
      "contractName": null,
      "contractAddress": "0x036cbd53842c5426634e7929541ec2318f3dcf7e",
      "function": "approve(address,uint256)",
      "arguments": [
        "0x000000000022D473030F116dDEE9F6B43aC78BA3",
        "115792089237316195423570985008687907853269984665640564039457584007913129639935"
      ],
      "transaction": {
        "from": "0x499c8bb98c1962aa6329b515f918836024ee746f",
        "to": "0x036cbd53842c5426634e7929541ec2318f3dcf7e",
        "gas": "0xdca8",
        "value": "0x0",
        "input": "0x095ea7b3000000000000000000000000000000000022d473030f116ddee9f6b43ac78ba3ffffffffffffffffffffffffffffffffffffffffffffffffffffffffffffffff",
        "nonce": "0x27",
        "chainId": "0x14a34"
      },
      "additionalContracts": [],
      "isFixedGasLimit": false
    },
    {
      "hash": "0x3c4b822bcd42d1ca7cb46cb89c66a30a0bbec3dafdc4c2b4ec1b9e3f869fe921",
      "transactionType": "CALL",
      "contractName": null,
      "contractAddress": "0x000000000022d473030f116ddee9f6b43ac78ba3",
      "function": "approve(address,address,uint160,uint48)",
      "arguments": [
        "0x036CbD53842c5426634e7929541eC2318f3dCF7e",
        "0x4B2C77d209D3405F41a037Ec6c77F7F5b8e2ca80",
        "1461501637330902918203684832716283019655932542975",
        "281474976710655"
      ],
      "transaction": {
        "from": "0x499c8bb98c1962aa6329b515f918836024ee746f",
        "to": "0x000000000022d473030f116ddee9f6b43ac78ba3",
        "gas": "0x96a0",
        "value": "0x0",
        "input": "0x87517c45000000000000000000000000036cbd53842c5426634e7929541ec2318f3dcf7e0000000000000000000000004b2c77d209d3405f41a037ec6c77f7f5b8e2ca80000000000000000000000000ffffffffffffffffffffffffffffffffffffffff0000000000000000000000000000000000000000000000000000ffffffffffff",
        "nonce": "0x28",
        "chainId": "0x14a34"
      },
      "additionalContracts": [],
      "isFixedGasLimit": false
    },
    {
      "hash": "0xdcfd3f4523469b3484c3ebbaa913f4118acad52454b325263d65c61c8741e8f0",
      "transactionType": "CALL",
      "contractName": null,
      "contractAddress": "0x4200000000000000000000000000000000000006",
      "function": "approve(address,uint256)",
      "arguments": [
        "0x000000000022D473030F116dDEE9F6B43aC78BA3",
        "115792089237316195423570985008687907853269984665640564039457584007913129639935"
      ],
      "transaction": {
        "from": "0x499c8bb98c1962aa6329b515f918836024ee746f",
        "to": "0x4200000000000000000000000000000000000006",
        "gas": "0x8e58",
        "value": "0x0",
        "input": "0x095ea7b3000000000000000000000000000000000022d473030f116ddee9f6b43ac78ba3ffffffffffffffffffffffffffffffffffffffffffffffffffffffffffffffff",
        "nonce": "0x29",
        "chainId": "0x14a34"
      },
      "additionalContracts": [],
      "isFixedGasLimit": false
    },
    {
      "hash": "0xc61d1b42c4b59d40959e4ba9c62552d856cdc647a58cbe9080a228261af405c9",
      "transactionType": "CALL",
      "contractName": null,
      "contractAddress": "0x000000000022d473030f116ddee9f6b43ac78ba3",
      "function": "approve(address,address,uint160,uint48)",
      "arguments": [
        "0x4200000000000000000000000000000000000006",
        "0x4B2C77d209D3405F41a037Ec6c77F7F5b8e2ca80",
        "1461501637330902918203684832716283019655932542975",
        "281474976710655"
      ],
      "transaction": {
        "from": "0x499c8bb98c1962aa6329b515f918836024ee746f",
        "to": "0x000000000022d473030f116ddee9f6b43ac78ba3",
        "gas": "0x9576",
        "value": "0x0",
        "input": "0x87517c4500000000000000000000000042000000000000000000000000000000000000060000000000000000000000004b2c77d209d3405f41a037ec6c77f7f5b8e2ca80000000000000000000000000ffffffffffffffffffffffffffffffffffffffff0000000000000000000000000000000000000000000000000000ffffffffffff",
        "nonce": "0x2a",
        "chainId": "0x14a34"
      },
      "additionalContracts": [],
      "isFixedGasLimit": false
    },
    {
      "hash": "0xbb4615752ceb41a7a8e63ecf1e42ed61e5edf225798ee1085479b4ce05adfeb9",
      "transactionType": "CALL",
      "contractName": null,
      "contractAddress": "0x4b2c77d209d3405f41a037ec6c77f7f5b8e2ca80",
      "function": "multicall(bytes[])",
      "arguments": [
        "[0xdd46508f000000000000000000000000000000000000000000000000000000000000004000000000000000000000000000000000000000000000000000000000697f23100000000000000000000000000000000000000000000000000000000000000400000000000000000000000000000000000000000000000000000000000000004000000000000000000000000000000000000000000000000000000000000000800000000000000000000000000000000000000000000000000000000000000004020d14140000000000000000000000000000000000000000000000000000000000000000000000000000000000000000000000000000000000000000000000040000000000000000000000000000000000000000000000000000000000000080000000000000000000000000000000000000000000000000000000000000024000000000000000000000000000000000000000000000000000000000000002a0000000000000000000000000000000000000000000000000000000000000030000000000000000000000000000000000000000000000000000000000000001a0000000000000000000000000036cbd53842c5426634e7929541ec2318f3dcf7e00000000000000000000000042000000000000000000000000000000000000060000000000000000000000000000000000000000000000000000000000000bb8000000000000000000000000000000000000000000000000000000000000003c000000000000000000000000ce26c2951413f1102187f8665f715870dafa8500ffffffffffffffffffffffffffffffffffffffffffffffffffffffffffff15a0000000000000000000000000000000000000000000000000000000000000ea600000000000000000000000000000000000000000000000000000000000019b1800000000000000000000000000000000000000000000000000000000000186a100000000000000000000000000000000000000000000000000038d7ea4c68001000000000000000000000000499c8bb98c1962aa6329b515f918836024ee746f000000000000000000000000000000000000000000000000000000000000018000000000000000000000000000000000000000000000000000000000000000000000000000000000000000000000000000000000000000000000000000000040000000000000000000000000036cbd53842c5426634e7929541ec2318f3dcf7e00000000000000000000000042000000000000000000000000000000000000060000000000000000000000000000000000000000000000000000000000000040000000000000000000000000036cbd53842c5426634e7929541ec2318f3dcf7e000000000000000000000000499c8bb98c1962aa6329b515f918836024ee746f00000000000000000000000000000000000000000000000000000000000000400000000000000000000000004200000000000000000000000000000000000006000000000000000000000000499c8bb98c1962aa6329b515f918836024ee746f]"
      ],
      "transaction": {
        "from": "0x499c8bb98c1962aa6329b515f918836024ee746f",
        "to": "0x4b2c77d209d3405f41a037ec6c77f7f5b8e2ca80",
        "gas": "0x7c095",
        "value": "0x0",
        "input": "0xac9650d80000000000000000000000000000000000000000000000000000000000000020000000000000000000000000000000000000000000000000000000000000000100000000000000000000000000000000000000000000000000000000000000200000000000000000000000000000000000000000000000000000000000000464dd46508f000000000000000000000000000000000000000000000000000000000000004000000000000000000000000000000000000000000000000000000000697f23100000000000000000000000000000000000000000000000000000000000000400000000000000000000000000000000000000000000000000000000000000004000000000000000000000000000000000000000000000000000000000000000800000000000000000000000000000000000000000000000000000000000000004020d14140000000000000000000000000000000000000000000000000000000000000000000000000000000000000000000000000000000000000000000000040000000000000000000000000000000000000000000000000000000000000080000000000000000000000000000000000000000000000000000000000000024000000000000000000000000000000000000000000000000000000000000002a0000000000000000000000000000000000000000000000000000000000000030000000000000000000000000000000000000000000000000000000000000001a0000000000000000000000000036cbd53842c5426634e7929541ec2318f3dcf7e00000000000000000000000042000000000000000000000000000000000000060000000000000000000000000000000000000000000000000000000000000bb8000000000000000000000000000000000000000000000000000000000000003c000000000000000000000000ce26c2951413f1102187f8665f715870dafa8500ffffffffffffffffffffffffffffffffffffffffffffffffffffffffffff15a0000000000000000000000000000000000000000000000000000000000000ea600000000000000000000000000000000000000000000000000000000000019b1800000000000000000000000000000000000000000000000000000000000186a100000000000000000000000000000000000000000000000000038d7ea4c68001000000000000000000000000499c8bb98c1962aa6329b515f918836024ee746f000000000000000000000000000000000000000000000000000000000000018000000000000000000000000000000000000000000000000000000000000000000000000000000000000000000000000000000000000000000000000000000040000000000000000000000000036cbd53842c5426634e7929541ec2318f3dcf7e00000000000000000000000042000000000000000000000000000000000000060000000000000000000000000000000000000000000000000000000000000040000000000000000000000000036cbd53842c5426634e7929541ec2318f3dcf7e000000000000000000000000499c8bb98c1962aa6329b515f918836024ee746f00000000000000000000000000000000000000000000000000000000000000400000000000000000000000004200000000000000000000000000000000000006000000000000000000000000499c8bb98c1962aa6329b515f918836024ee746f00000000000000000000000000000000000000000000000000000000",
        "nonce": "0x2b",
        "chainId": "0x14a34"
      },
      "additionalContracts": [],
      "isFixedGasLimit": false
    }
  ],
  "receipts": [
    {
      "status": "0x1",
      "cumulativeGasUsed": "0x2d9f7",
      "logs": [
        {
          "address": "0x036cbd53842c5426634e7929541ec2318f3dcf7e",
          "topics": [
            "0x8c5be1e5ebec7d5bd14f71427d1e84f3dd0314c0f7b2291e5b200ac8c7c3b925",
            "0x000000000000000000000000499c8bb98c1962aa6329b515f918836024ee746f",
            "0x000000000000000000000000000000000022d473030f116ddee9f6b43ac78ba3"
          ],
          "data": "0xffffffffffffffffffffffffffffffffffffffffffffffffffffffffffffffff",
          "blockHash": "0xb26cad47ec40ddab49958d865ff58a9c049c5761661745d50a8e13e08f2dc273",
          "blockNumber": "0x235e200",
          "blockTimestamp": "0x697f22e0",
          "transactionHash": "0x7091b43e2ff655555ba9a2e06379653271eaa7ed222489d43aa3de1ee9242fbf",
          "transactionIndex": "0x2",
          "logIndex": "0x5",
          "removed": false
        }
      ],
      "logsBloom": "0x00000000040000000000000000000000000000000000000000000000000000000000000000000000000000000000000000000000800000000000000000200000000000000000000000004000000000000000000000000800000000000000000800000000000000000000000000000000000000000000004000000000000000000000000000000000000000000000080000000000000000000000000000000000020000000000000000000000000000000000000000000000000000000000000000000000000000000000000000000000000000000000000000000000000000000010000000000000000000000820000000000000000000000000000000000000",
      "type": "0x2",
      "transactionHash": "0x7091b43e2ff655555ba9a2e06379653271eaa7ed222489d43aa3de1ee9242fbf",
      "transactionIndex": "0x2",
      "blockHash": "0xb26cad47ec40ddab49958d865ff58a9c049c5761661745d50a8e13e08f2dc273",
      "blockNumber": "0x235e200",
      "gasUsed": "0x96e1",
      "effectiveGasPrice": "0x124f80",
      "blobGasUsed": "0x79e0",
      "from": "0x499c8bb98c1962aa6329b515f918836024ee746f",
      "to": "0x036cbd53842c5426634e7929541ec2318f3dcf7e",
      "contractAddress": null,
      "daFootprintGasScalar": "0x138",
      "l1BaseFeeScalar": "0x44d",
      "l1BlobBaseFee": "0x39fb58a",
      "l1BlobBaseFeeScalar": "0xa118b",
      "l1Fee": "0x21463f01a",
      "l1GasPrice": "0x3fc472a2",
      "l1GasUsed": "0x640"
    },
    {
      "status": "0x1",
      "cumulativeGasUsed": "0x34705",
      "logs": [
        {
          "address": "0x000000000022d473030f116ddee9f6b43ac78ba3",
          "topics": [
            "0xda9fa7c1b00402c17d0161b249b1ab8bbec047c5a52207b9c112deffd817036b",
            "0x000000000000000000000000499c8bb98c1962aa6329b515f918836024ee746f",
            "0x000000000000000000000000036cbd53842c5426634e7929541ec2318f3dcf7e",
            "0x0000000000000000000000004b2c77d209d3405f41a037ec6c77f7f5b8e2ca80"
          ],
          "data": "0x000000000000000000000000ffffffffffffffffffffffffffffffffffffffff0000000000000000000000000000000000000000000000000000ffffffffffff",
          "blockHash": "0xb26cad47ec40ddab49958d865ff58a9c049c5761661745d50a8e13e08f2dc273",
          "blockNumber": "0x235e200",
          "blockTimestamp": "0x697f22e0",
          "transactionHash": "0x3c4b822bcd42d1ca7cb46cb89c66a30a0bbec3dafdc4c2b4ec1b9e3f869fe921",
          "transactionIndex": "0x3",
          "logIndex": "0x6",
          "removed": false
        }
      ],
      "logsBloom": "0x00010000000000010000000000000000000000000000000000000000000000000000000000000000000000000000000000000000000000000008000010080000000000000000000000000000000000000000000000000000000000000000000000000000000000000000000000000000000000000000004000000000000000000020000040000000000000000000080000000000000000000000000000000000000000000000000000000000000000000000000000000000100000080000000000000000000000000000000000000000000000000000000040000000000000000000000000000000000000000840000000000000000000000000000000000400",
      "type": "0x2",
      "transactionHash": "0x3c4b822bcd42d1ca7cb46cb89c66a30a0bbec3dafdc4c2b4ec1b9e3f869fe921",
      "transactionIndex": "0x3",
      "blockHash": "0xb26cad47ec40ddab49958d865ff58a9c049c5761661745d50a8e13e08f2dc273",
      "blockNumber": "0x235e200",
      "gasUsed": "0x6d0e",
      "effectiveGasPrice": "0x124f80",
      "blobGasUsed": "0x8748",
      "from": "0x499c8bb98c1962aa6329b515f918836024ee746f",
      "to": "0x000000000022d473030f116ddee9f6b43ac78ba3",
      "contractAddress": null,
      "daFootprintGasScalar": "0x138",
      "l1BaseFeeScalar": "0x44d",
      "l1BlobBaseFee": "0x39fb58a",
      "l1BlobBaseFeeScalar": "0xa118b",
      "l1Fee": "0x21463f01a",
      "l1GasPrice": "0x3fc472a2",
      "l1GasUsed": "0x6f5"
    },
    {
      "status": "0x1",
      "cumulativeGasUsed": "0x17021b",
      "logs": [
        {
          "address": "0x4200000000000000000000000000000000000006",
          "topics": [
            "0x8c5be1e5ebec7d5bd14f71427d1e84f3dd0314c0f7b2291e5b200ac8c7c3b925",
            "0x000000000000000000000000499c8bb98c1962aa6329b515f918836024ee746f",
            "0x000000000000000000000000000000000022d473030f116ddee9f6b43ac78ba3"
          ],
          "data": "0xffffffffffffffffffffffffffffffffffffffffffffffffffffffffffffffff",
          "blockHash": "0xf17d859985b396b740cf31df8100d8978af64ded2013c14968f040f4276470bc",
          "blockNumber": "0x235e200",
          "blockTimestamp": "0x697f22e0",
          "transactionHash": "0xdcfd3f4523469b3484c3ebbaa913f4118acad52454b325263d65c61c8741e8f0",
          "transactionIndex": "0x6",
          "logIndex": "0x51",
          "removed": false
        }
      ],
      "logsBloom": "0x00000000000000000000000000000000000000000000000000040000000000000000000000000000000000100000000000000000800000000000000000200000000000000000000000004000000000000000000000000800000000000000000000000000000000000000000000000000000000000000004000000000000000000000000000000000000000000000080000000000002000000000000000000000020000000000000000000000000000000000000000000000000000000000000000000000000000000000000000000000000000000000000000000000000000000010000000000000000000000800000000000000000000000000000000000000",
      "type": "0x2",
      "transactionHash": "0xdcfd3f4523469b3484c3ebbaa913f4118acad52454b325263d65c61c8741e8f0",
      "transactionIndex": "0x6",
      "blockHash": "0xf17d859985b396b740cf31df8100d8978af64ded2013c14968f040f4276470bc",
      "blockNumber": "0x235e200",
      "gasUsed": "0x670f",
      "effectiveGasPrice": "0x124f80",
      "blobGasUsed": "0x79e0",
      "from": "0x499c8bb98c1962aa6329b515f918836024ee746f",
      "to": "0x4200000000000000000000000000000000000006",
      "contractAddress": null,
      "daFootprintGasScalar": "0x138",
      "l1BaseFeeScalar": "0x44d",
      "l1BlobBaseFee": "0x39fb58a",
      "l1BlobBaseFeeScalar": "0xa118b",
      "l1Fee": "0x510c45158",
      "l1GasPrice": "0x3fc472a2",
      "l1GasUsed": "0x640"
    },
    {
      "status": "0x1",
      "cumulativeGasUsed": "0x176e51",
      "logs": [
        {
          "address": "0x000000000022d473030f116ddee9f6b43ac78ba3",
          "topics": [
            "0xda9fa7c1b00402c17d0161b249b1ab8bbec047c5a52207b9c112deffd817036b",
            "0x000000000000000000000000499c8bb98c1962aa6329b515f918836024ee746f",
            "0x0000000000000000000000004200000000000000000000000000000000000006",
            "0x0000000000000000000000004b2c77d209d3405f41a037ec6c77f7f5b8e2ca80"
          ],
          "data": "0x000000000000000000000000ffffffffffffffffffffffffffffffffffffffff0000000000000000000000000000000000000000000000000000ffffffffffff",
          "blockHash": "0xf17d859985b396b740cf31df8100d8978af64ded2013c14968f040f4276470bc",
          "blockNumber": "0x235e200",
          "blockTimestamp": "0x697f22e0",
          "transactionHash": "0xc61d1b42c4b59d40959e4ba9c62552d856cdc647a58cbe9080a228261af405c9",
          "transactionIndex": "0x7",
          "logIndex": "0x52",
          "removed": false
        }
      ],
      "logsBloom": "0x00010000000000010000000000000000000000000000000000000000000000000000000000000000000000000000000000000000000000000028000010080000000000000000000000000000000000000000000000000000000000000000000000000000000000000000000000000000000010000000004000000000000000000020000000000000000000000000080000000000000000000000000000000000000000000000000000000000000000000000000000000000000000080000000000000000000004000000000000000000000000000000000040000000000000000000000000000000000000000800000000000000000000000000000000000400",
      "type": "0x2",
      "transactionHash": "0xc61d1b42c4b59d40959e4ba9c62552d856cdc647a58cbe9080a228261af405c9",
      "transactionIndex": "0x7",
      "blockHash": "0xf17d859985b396b740cf31df8100d8978af64ded2013c14968f040f4276470bc",
      "blockNumber": "0x235e200",
      "gasUsed": "0x6c36",
      "effectiveGasPrice": "0x124f80",
      "blobGasUsed": "0x7d88",
      "from": "0x499c8bb98c1962aa6329b515f918836024ee746f",
      "to": "0x000000000022d473030f116ddee9f6b43ac78ba3",
      "contractAddress": null,
      "daFootprintGasScalar": "0x138",
      "l1BaseFeeScalar": "0x44d",
      "l1BlobBaseFee": "0x39fb58a",
      "l1BlobBaseFeeScalar": "0xa118b",
      "l1Fee": "0x510c45158",
      "l1GasPrice": "0x3fc472a2",
      "l1GasUsed": "0x67c"
    },
    {
      "status": "0x1",
      "cumulativeGasUsed": "0x234f75",
      "logs": [
        {
          "address": "0x4b2c77d209d3405f41a037ec6c77f7f5b8e2ca80",
          "topics": [
            "0xddf252ad1be2c89b69c2b068fc378daa952ba7f163c4a11628f55a4df523b3ef",
            "0x0000000000000000000000000000000000000000000000000000000000000000",
            "0x000000000000000000000000499c8bb98c1962aa6329b515f918836024ee746f",
            "0x000000000000000000000000000000000000000000000000000000000000408c"
          ],
          "data": "0x",
          "blockHash": "0x1f58e474d4230cbe9330fa6657a9399f905ee9b3d6c20e9e24af53003b92d23c",
          "blockNumber": "0x235e200",
          "blockTimestamp": "0x697f22e0",
          "transactionHash": "0xbb4615752ceb41a7a8e63ecf1e42ed61e5edf225798ee1085479b4ce05adfeb9",
          "transactionIndex": "0xa",
          "logIndex": "0x5d",
          "removed": false
        },
        {
          "address": "0x05e73354cfdd6745c338b50bcfdfa3aa6fa03408",
          "topics": [
            "0xf208f4912782fd25c7f114ca3723a2d5dd6f3bcc3ac8db5af63baa85f711d5ec",
            "0x9f66b0591cf862c4a877d722e6f042103a4d50b45155b963427dafd7963c1a35",
            "0x0000000000000000000000004b2c77d209d3405f41a037ec6c77f7f5b8e2ca80"
          ],
          "data": "0xffffffffffffffffffffffffffffffffffffffffffffffffffffffffffff15a0000000000000000000000000000000000000000000000000000000000000ea600000000000000000000000000000000000000000000000000000000000019b18000000000000000000000000000000000000000000000000000000000000408c",
          "blockHash": "0x1f58e474d4230cbe9330fa6657a9399f905ee9b3d6c20e9e24af53003b92d23c",
          "blockNumber": "0x235e200",
          "blockTimestamp": "0x697f22e0",
          "transactionHash": "0xbb4615752ceb41a7a8e63ecf1e42ed61e5edf225798ee1085479b4ce05adfeb9",
          "transactionIndex": "0xa",
          "logIndex": "0x5e",
          "removed": false
        },
        {
          "address": "0xce26c2951413f1102187f8665f715870dafa8500",
          "topics": [
            "0xf390f40c2064f62062980daf6c9d4fb39b392ccfda15ab7d7c3eac63fdc06d8b",
            "0x0000000000000000000000004b2c77d209d3405f41a037ec6c77f7f5b8e2ca80",
            "0x9f66b0591cf862c4a877d722e6f042103a4d50b45155b963427dafd7963c1a35"
          ],
          "data": "0x0000000000000000000000000000000000000000000000000000000000019b1800000000000000000000000000000000000000000000000000000000697f22e00000000000000000000000000000000000000000000000000000000000014a34",
          "blockHash": "0x1f58e474d4230cbe9330fa6657a9399f905ee9b3d6c20e9e24af53003b92d23c",
          "blockNumber": "0x235e200",
          "blockTimestamp": "0x697f22e0",
          "transactionHash": "0xbb4615752ceb41a7a8e63ecf1e42ed61e5edf225798ee1085479b4ce05adfeb9",
          "transactionIndex": "0xa",
          "logIndex": "0x5f",
          "removed": false
        },
        {
          "address": "0x036cbd53842c5426634e7929541ec2318f3dcf7e",
          "topics": [
            "0xddf252ad1be2c89b69c2b068fc378daa952ba7f163c4a11628f55a4df523b3ef",
            "0x000000000000000000000000499c8bb98c1962aa6329b515f918836024ee746f",
            "0x00000000000000000000000005e73354cfdd6745c338b50bcfdfa3aa6fa03408"
          ],
          "data": "0x00000000000000000000000000000000000000000000000000000000000186a0",
          "blockHash": "0x1f58e474d4230cbe9330fa6657a9399f905ee9b3d6c20e9e24af53003b92d23c",
          "blockNumber": "0x235e200",
          "blockTimestamp": "0x697f22e0",
          "transactionHash": "0xbb4615752ceb41a7a8e63ecf1e42ed61e5edf225798ee1085479b4ce05adfeb9",
          "transactionIndex": "0xa",
          "logIndex": "0x60",
          "removed": false
        },
        {
          "address": "0x4200000000000000000000000000000000000006",
          "topics": [
            "0xddf252ad1be2c89b69c2b068fc378daa952ba7f163c4a11628f55a4df523b3ef",
            "0x000000000000000000000000499c8bb98c1962aa6329b515f918836024ee746f",
            "0x00000000000000000000000005e73354cfdd6745c338b50bcfdfa3aa6fa03408"
          ],
          "data": "0x00000000000000000000000000000000000000000000000000000000000186a0",
          "blockHash": "0x1f58e474d4230cbe9330fa6657a9399f905ee9b3d6c20e9e24af53003b92d23c",
          "blockNumber": "0x235e200",
          "blockTimestamp": "0x697f22e0",
          "transactionHash": "0xbb4615752ceb41a7a8e63ecf1e42ed61e5edf225798ee1085479b4ce05adfeb9",
          "transactionIndex": "0xa",
          "logIndex": "0x61",
          "removed": false
        }
      ],
      "logsBloom": "0x00000000040000010000000000000000000000000000000000040000000000020100000100000040000000100000000000000000000000000008000010000800000000000010000000000008000000000000000000100000000080008000000800000000028000000000000000000880000000000000004010000010000000000400000005000000000000000000080000000000002000000000004000000000000004000000000000000000000000000000000000000000000000000000000000000002001000000000000000000000000000000000000000000000001020000000000002400000000000000820000004000000000000010000000000000000",
      "type": "0x2",
      "transactionHash": "0xbb4615752ceb41a7a8e63ecf1e42ed61e5edf225798ee1085479b4ce05adfeb9",
      "transactionIndex": "0xa",
      "blockHash": "0x1f58e474d4230cbe9330fa6657a9399f905ee9b3d6c20e9e24af53003b92d23c",
      "blockNumber": "0x235e200",
      "gasUsed": "0x54cfb",
      "effectiveGasPrice": "0x124f80",
      "blobGasUsed": "0x17148",
      "from": "0x499c8bb98c1962aa6329b515f918836024ee746f",
      "to": "0x4b2c77d209d3405f41a037ec6c77f7f5b8e2ca80",
      "contractAddress": null,
      "daFootprintGasScalar": "0x138",
      "l1BaseFeeScalar": "0x44d",
      "l1BlobBaseFee": "0x39fb58a",
      "l1BlobBaseFeeScalar": "0xa118b",
      "l1Fee": "0x42b74342c",
      "l1GasPrice": "0x3fc472a2",
      "l1GasUsed": "0x12fb"
    }
  ],
  "libraries": [],
  "pending": [],
  "returns": {},
  "timestamp": 1769939679456,
  "chain": 84532,
  "commit": "4221d3a"
}