{
  "transactions": [
    {
      "hash": "0x3f91c4a13e444fbef78076e68790afeee4183e37bca2fe030dd2b1460a3c28a4",
      "transactionType": "CALL",
      "contractName": null,
      "contractAddress": "0x1c7d4b196cb0c7b01d743fbc6116a902379c7238",
      "function": "approve(address,uint256)",
      "arguments": [
        "0x000000000022D473030F116dDEE9F6B43aC78BA3",
        "115792089237316195423570985008687907853269984665640564039457584007913129639935"
      ],
      "transaction": {
        "from": "0x499c8bb98c1962aa6329b515f918836024ee746f",
        "to": "0x1c7d4b196cb0c7b01d743fbc6116a902379c7238",
        "gas": "0x12ca9",
        "value": "0x0",
        "input": "0x095ea7b3000000000000000000000000000000000022d473030f116ddee9f6b43ac78ba3ffffffffffffffffffffffffffffffffffffffffffffffffffffffffffffffff",
        "nonce": "0x113",
        "chainId": "0xaa36a7"
      },
      "additionalContracts": [],
      "isFixedGasLimit": false
    },
    {
      "hash": "0xe62ab7492768dd1c0a0ea8c45d7931aba3e44bb5ba4326570caf9cbb444d262c",
      "transactionType": "CALL",
      "contractName": null,
      "contractAddress": "0x000000000022d473030f116ddee9f6b43ac78ba3",
      "function": "approve(address,address,uint160,uint48)",
      "arguments": [
        "0x1c7D4B196Cb0C7B01d743Fbc6116a902379C7238",
        "0x429ba70129df741B2Ca2a85BC3A2a3328e5c09b4",
        "1461501637330902918203684832716283019655932542975",
        "281474976710655"
      ],
      "transaction": {
        "from": "0x499c8bb98c1962aa6329b515f918836024ee746f",
        "to": "0x000000000022d473030f116ddee9f6b43ac78ba3",
        "gas": "0x1112d",
        "value": "0x0",
        "input": "0x87517c450000000000000000000000001c7d4b196cb0c7b01d743fbc6116a902379c7238000000000000000000000000429ba70129df741b2ca2a85bc3a2a3328e5c09b4000000000000000000000000ffffffffffffffffffffffffffffffffffffffff0000000000000000000000000000000000000000000000000000ffffffffffff",
        "nonce": "0x114",
        "chainId": "0xaa36a7"
      },
      "additionalContracts": [],
      "isFixedGasLimit": false
    },
    {
      "hash": "0xfa9311f6760fa133c64a4ae76588b7ea47929abc45bb72ae64f15e6d6362944d",
      "transactionType": "CALL",
      "contractName": null,
      "contractAddress": "0xfff9976782d46cc05630d1f6ebab18b2324d6b14",
      "function": "approve(address,uint256)",
      "arguments": [
        "0x000000000022D473030F116dDEE9F6B43aC78BA3",
        "115792089237316195423570985008687907853269984665640564039457584007913129639935"
      ],
      "transaction": {
        "from": "0x499c8bb98c1962aa6329b515f918836024ee746f",
        "to": "0xfff9976782d46cc05630d1f6ebab18b2324d6b14",
        "gas": "0xf9d5",
        "value": "0x0",
        "input": "0x095ea7b3000000000000000000000000000000000022d473030f116ddee9f6b43ac78ba3ffffffffffffffffffffffffffffffffffffffffffffffffffffffffffffffff",
        "nonce": "0x115",
        "chainId": "0xaa36a7"
      },
      "additionalContracts": [],
      "isFixedGasLimit": false
    },
    {
      "hash": "0x40f6fdd72049bbf1f4fdf2059d9de0a429569c538e076f54719a0fd98a7c0006",
      "transactionType": "CALL",
      "contractName": null,
      "contractAddress": "0x000000000022d473030f116ddee9f6b43ac78ba3",
      "function": "approve(address,address,uint160,uint48)",
      "arguments": [
        "0xfFf9976782d46CC05630D1f6eBAb18b2324d6B14",
        "0x429ba70129df741B2Ca2a85BC3A2a3328e5c09b4",
        "1461501637330902918203684832716283019655932542975",
        "281474976710655"
      ],
      "transaction": {
        "from": "0x499c8bb98c1962aa6329b515f918836024ee746f",
        "to": "0x000000000022d473030f116ddee9f6b43ac78ba3",
        "gas": "0x1112d",
        "value": "0x0",
        "input": "0x87517c45000000000000000000000000fff9976782d46cc05630d1f6ebab18b2324d6b14000000000000000000000000429ba70129df741b2ca2a85bc3a2a3328e5c09b4000000000000000000000000ffffffffffffffffffffffffffffffffffffffff0000000000000000000000000000000000000000000000000000ffffffffffff",
        "nonce": "0x116",
        "chainId": "0xaa36a7"
      },
      "additionalContracts": [],
      "isFixedGasLimit": false
    },
    {
      "hash": "0x6817c88a5cebefaf67523fe0d01713a074bfe5fb79ee0f2b14e4e206410238ef",
      "transactionType": "CALL",
      "contractName": null,
      "contractAddress": "0x429ba70129df741b2ca2a85bc3a2a3328e5c09b4",
      "function": "multicall(bytes[])",
      "arguments": [
        "[0xf70204050000000000000000000000001c7d4b196cb0c7b01d743fbc6116a902379c7238000000000000000000000000fff9976782d46cc05630d1f6ebab18b2324d6b140000000000000000000000000000000000000000000000000000000000000bb8000000000000000000000000000000000000000000000000000000000000003c00000000000000000000000080f33c8fa104a0c14112fba1f2577df69dcdc500000000000000000000000000000000000000000100000000000000000000000000000000000000000000000000000000000000000000000000000000000000e00000000000000000000000000000000000000000000000000000000000000000, 0xdd46508f000000000000000000000000000000000000000000000000000000000000004000000000000000000000000000000000000000000000000000000000697de6b00000000000000000000000000000000000000000000000000000000000000400000000000000000000000000000000000000000000000000000000000000004000000000000000000000000000000000000000000000000000000000000000800000000000000000000000000000000000000000000000000000000000000004020d14140000000000000000000000000000000000000000000000000000000000000000000000000000000000000000000000000000000000000000000000040000000000000000000000000000000000000000000000000000000000000080000000000000000000000000000000000000000000000000000000000000024000000000000000000000000000000000000000000000000000000000000002a0000000000000000000000000000000000000000000000000000000000000030000000000000000000000000000000000000000000000000000000000000001a00000000000000000000000001c7d4b196cb0c7b01d743fbc6116a902379c7238000000000000000000000000fff9976782d46cc05630d1f6ebab18b2324d6b140000000000000000000000000000000000000000000000000000000000000bb8000000000000000000000000000000000000000000000000000000000000003c00000000000000000000000080f33c8fa104a0c14112fba1f2577df69dcdc500ffffffffffffffffffffffffffffffffffffffffffffffffffffffffffff5038000000000000000000000000000000000000000000000000000000000000afc8000000000000000000000000000000000000000000000000000000000000da53000000000000000000000000000000000000000000000000000000000000c35100000000000000000000000000000000000000000000000000b1a2bc2ec50001000000000000000000000000499c8bb98c1962aa6329b515f918836024ee746f0000000000000000000000000000000000000000000000000000000000000180000000000000000000000000000000000000000000000000000000000000000000000000000000000000000000000000000000000000000000000000000000400000000000000000000000001c7d4b196cb0c7b01d743fbc6116a902379c7238000000000000000000000000fff9976782d46cc05630d1f6ebab18b2324d6b1400000000000000000000000000000000000000000000000000000000000000400000000000000000000000001c7d4b196cb0c7b01d743fbc6116a902379c7238000000000000000000000000499c8bb98c1962aa6329b515f918836024ee746f0000000000000000000000000000000000000000000000000000000000000040000000000000000000000000fff9976782d46cc05630d1f6ebab18b2324d6b14000000000000000000000000499c8bb98c1962aa6329b515f918836024ee746f]"
      ],
      "transaction": {
        "from": "0x499c8bb98c1962aa6329b515f918836024ee746f",
        "to": "0x429ba70129df741b2ca2a85bc3a2a3328e5c09b4",
        "gas": "0xab972",
        "value": "0x0",
        "input": "0xac9650d800000000000000000000000000000000000000000000000000000000000000200000000000000000000000000000000000000000000000000000000000000002000000000000000000000000000000000000000000000000000000000000004000000000000000000000000000000000000000000000000000000000000001800000000000000000000000000000000000000000000000000000000000000104f70204050000000000000000000000001c7d4b196cb0c7b01d743fbc6116a902379c7238000000000000000000000000fff9976782d46cc05630d1f6ebab18b2324d6b140000000000000000000000000000000000000000000000000000000000000bb8000000000000000000000000000000000000000000000000000000000000003c00000000000000000000000080f33c8fa104a0c14112fba1f2577df69dcdc500000000000000000000000000000000000000000100000000000000000000000000000000000000000000000000000000000000000000000000000000000000e00000000000000000000000000000000000000000000000000000000000000000000000000000000000000000000000000000000000000000000000000000000000000000000000000000000000000000000000000000000000000464dd46508f000000000000000000000000000000000000000000000000000000000000004000000000000000000000000000000000000000000000000000000000697de6b00000000000000000000000000000000000000000000000000000000000000400000000000000000000000000000000000000000000000000000000000000004000000000000000000000000000000000000000000000000000000000000000800000000000000000000000000000000000000000000000000000000000000004020d14140000000000000000000000000000000000000000000000000000000000000000000000000000000000000000000000000000000000000000000000040000000000000000000000000000000000000000000000000000000000000080000000000000000000000000000000000000000000000000000000000000024000000000000000000000000000000000000000000000000000000000000002a0000000000000000000000000000000000000000000000000000000000000030000000000000000000000000000000000000000000000000000000000000001a00000000000000000000000001c7d4b196cb0c7b01d743fbc6116a902379c7238000000000000000000000000fff9976782d46cc05630d1f6ebab18b2324d6b140000000000000000000000000000000000000000000000000000000000000bb8000000000000000000000000000000000000000000000000000000000000003c00000000000000000000000080f33c8fa104a0c14112fba1f2577df69dcdc500ffffffffffffffffffffffffffffffffffffffffffffffffffffffffffff5038000000000000000000000000000000000000000000000000000000000000afc8000000000000000000000000000000000000000000000000000000000000da53000000000000000000000000000000000000000000000000000000000000c35100000000000000000000000000000000000000000000000000b1a2bc2ec50001000000000000000000000000499c8bb98c1962aa6329b515f918836024ee746f0000000000000000000000000000000000000000000000000000000000000180000000000000000000000000000000000000000000000000000000000000000000000000000000000000000000000000000000000000000000000000000000400000000000000000000000001c7d4b196cb0c7b01d743fbc6116a902379c7238000000000000000000000000fff9976782d46cc05630d1f6ebab18b2324d6b1400000000000000000000000000000000000000000000000000000000000000400000000000000000000000001c7d4b196cb0c7b01d743fbc6116a902379c7238000000000000000000000000499c8bb98c1962aa6329b515f918836024ee746f0000000000000000000000000000000000000000000000000000000000000040000000000000000000000000fff9976782d46cc05630d1f6ebab18b2324d6b14000000000000000000000000499c8bb98c1962aa6329b515f918836024ee746f00000000000000000000000000000000000000000000000000000000",
        "nonce": "0x117",
        "chainId": "0xaa36a7"
      },
      "additionalContracts": [],
      "isFixedGasLimit": false
    }
  ],
  "receipts": [
    {
      "status": "0x1",
      "cumulativeGasUsed": "0x38efa86",
      "logs": [
        {
          "address": "0x1c7d4b196cb0c7b01d743fbc6116a902379c7238",
          "topics": [
            "0x8c5be1e5ebec7d5bd14f71427d1e84f3dd0314c0f7b2291e5b200ac8c7c3b925",
            "0x000000000000000000000000499c8bb98c1962aa6329b515f918836024ee746f",
            "0x000000000000000000000000000000000022d473030f116ddee9f6b43ac78ba3"
          ],
          "data": "0xffffffffffffffffffffffffffffffffffffffffffffffffffffffffffffffff",
          "blockHash": "0xcb432a87b3a56efab31162a17942f729915425eadc849109ac4641b6ad476a43",
          "blockNumber": "0x9b0e1d",
          "blockTimestamp": "0x697dd8c4",
          "transactionHash": "0x3f91c4a13e444fbef78076e68790afeee4183e37bca2fe030dd2b1460a3c28a4",
          "transactionIndex": "0x71",
          "logIndex": "0xa0",
          "removed": false
        }
      ],
      "logsBloom": "0x00000000000000000000000000000000000000000000000000000000000200000000000000000000000000000000000000000000800000000000000000200000000000000000000000004000000000000000000000000800000000000000000000000000000000000000000000000000000000000000004000000000000000000000000000100000000000000000080000000000000000000000000000000000020000000000000000000000000000000000000000000000000000000000000000000000000000000000000000000000000000000000000000000000000000000010000000000000000010000800000000000000000000000000000000000000",
      "type": "0x2",
      "transactionHash": "0x3f91c4a13e444fbef78076e68790afeee4183e37bca2fe030dd2b1460a3c28a4",
      "transactionIndex": "0x71",
      "blockHash": "0xcb432a87b3a56efab31162a17942f729915425eadc849109ac4641b6ad476a43",
      "blockNumber": "0x9b0e1d",
      "gasUsed": "0xd9ad",
      "effectiveGasPrice": "0x3b03ac93",
      "from": "0x499c8bb98c1962aa6329b515f918836024ee746f",
      "to": "0x1c7d4b196cb0c7b01d743fbc6116a902379c7238",
      "contractAddress": null
    },
    {
      "status": "0x1",
      "cumulativeGasUsed": "0x38fb550",
      "logs": [
        {
          "address": "0x000000000022d473030f116ddee9f6b43ac78ba3",
          "topics": [
            "0xda9fa7c1b00402c17d0161b249b1ab8bbec047c5a52207b9c112deffd817036b",
            "0x000000000000000000000000499c8bb98c1962aa6329b515f918836024ee746f",
            "0x0000000000000000000000001c7d4b196cb0c7b01d743fbc6116a902379c7238",
            "0x000000000000000000000000429ba70129df741b2ca2a85bc3a2a3328e5c09b4"
          ],
          "data": "0x000000000000000000000000ffffffffffffffffffffffffffffffffffffffff0000000000000000000000000000000000000000000000000000ffffffffffff",
          "blockHash": "0xcb432a87b3a56efab31162a17942f729915425eadc849109ac4641b6ad476a43",
          "blockNumber": "0x9b0e1d",
          "blockTimestamp": "0x697dd8c4",
          "transactionHash": "0xe62ab7492768dd1c0a0ea8c45d7931aba3e44bb5ba4326570caf9cbb444d262c",
          "transactionIndex": "0x72",
          "logIndex": "0xa1",
          "removed": false
        }
      ],
      "logsBloom": "0x00010000000000000000000000000000000000000000000000000000000000000000000000000040080000000000000000000000000004000000000000080000100000000000000000000000000000000000000000000000000000000000000000000000000000000000000000000000000000000000004000000800000000000020000000000000000000000000080000000000000000000000000000000000000000000000000000000000000000000000008000000000000000080000000000000000000000000000000000000000000000000000000040000000000000000000000000000000000000000800000000000000000000000000000000000400",
      "type": "0x2",
      "transactionHash": "0xe62ab7492768dd1c0a0ea8c45d7931aba3e44bb5ba4326570caf9cbb444d262c",
      "transactionIndex": "0x72",
      "blockHash": "0xcb432a87b3a56efab31162a17942f729915425eadc849109ac4641b6ad476a43",
      "blockNumber": "0x9b0e1d",
      "gasUsed": "0xbaca",
      "effectiveGasPrice": "0x3b03ac93",
      "from": "0x499c8bb98c1962aa6329b515f918836024ee746f",
      "to": "0x000000000022d473030f116ddee9f6b43ac78ba3",
      "contractAddress": null
    },
    {
      "status": "0x1",
      "cumulativeGasUsed": "0x3906a30",
      "logs": [
        {
          "address": "0xfff9976782d46cc05630d1f6ebab18b2324d6b14",
          "topics": [
            "0x8c5be1e5ebec7d5bd14f71427d1e84f3dd0314c0f7b2291e5b200ac8c7c3b925",
            "0x000000000000000000000000499c8bb98c1962aa6329b515f918836024ee746f",
            "0x000000000000000000000000000000000022d473030f116ddee9f6b43ac78ba3"
          ],
          "data": "0xffffffffffffffffffffffffffffffffffffffffffffffffffffffffffffffff",
          "blockHash": "0xcb432a87b3a56efab31162a17942f729915425eadc849109ac4641b6ad476a43",
          "blockNumber": "0x9b0e1d",
          "blockTimestamp": "0x697dd8c4",
          "transactionHash": "0xfa9311f6760fa133c64a4ae76588b7ea47929abc45bb72ae64f15e6d6362944d",
          "transactionIndex": "0x73",
          "logIndex": "0xa2",
          "removed": false
        }
      ],
      "logsBloom": "0x00000000000000000000000000000000000000000000000000000000000000000000000000000000000000000000000000000000800000000000000000200000000000000000000000004000000000000000000000000800000000000000000000000000000000000000000000000000000000000000004000000000000000000040000000000000000000000000080000000000000000000000000000000000020020000000000000000000000000000000000000000000000000000000000000000000000000000002000000000000000000000000000000000000000000000010000000000000000000000800000000000000000000000000000000000000",
      "type": "0x2",
      "transactionHash": "0xfa9311f6760fa133c64a4ae76588b7ea47929abc45bb72ae64f15e6d6362944d",
      "transactionIndex": "0x73",
      "blockHash": "0xcb432a87b3a56efab31162a17942f729915425eadc849109ac4641b6ad476a43",
      "blockNumber": "0x9b0e1d",
      "gasUsed": "0xb4e0",
      "effectiveGasPrice": "0x3b03ac93",
      "from": "0x499c8bb98c1962aa6329b515f918836024ee746f",
      "to": "0xfff9976782d46cc05630d1f6ebab18b2324d6b14",
      "contractAddress": null
    },
    {
      "status": "0x1",
      "cumulativeGasUsed": "0x39124fa",
      "logs": [
        {
          "address": "0x000000000022d473030f116ddee9f6b43ac78ba3",
          "topics": [
            "0xda9fa7c1b00402c17d0161b249b1ab8bbec047c5a52207b9c112deffd817036b",
            "0x000000000000000000000000499c8bb98c1962aa6329b515f918836024ee746f",
            "0x000000000000000000000000fff9976782d46cc05630d1f6ebab18b2324d6b14",
            "0x000000000000000000000000429ba70129df741b2ca2a85bc3a2a3328e5c09b4"
          ],
          "data": "0x000000000000000000000000ffffffffffffffffffffffffffffffffffffffff0000000000000000000000000000000000000000000000000000ffffffffffff",
          "blockHash": "0xcb432a87b3a56efab31162a17942f729915425eadc849109ac4641b6ad476a43",
          "blockNumber": "0x9b0e1d",
          "blockTimestamp": "0x697dd8c4",
          "transactionHash": "0x40f6fdd72049bbf1f4fdf2059d9de0a429569c538e076f54719a0fd98a7c0006",
          "transactionIndex": "0x74",
          "logIndex": "0xa3",
          "removed": false
        }
      ],
      "logsBloom": "0x00010000001000000000000000000000000000000000000000000000000000000000000000000040080000000000000000000800000000000000000000080000000000000000000000000000000000000000000000000000000000000000000000000000000000000000000000000000000000000000004000000800000000000020000000000000000000000000080000000000000000000000000000000000000000000000000000000000000000000000000000000000000000080000000000000000000000000000000001000000000000000000000040000000000000000000000000000000000000000800000000000000000000000000000000000400",
      "type": "0x2",
      "transactionHash": "0x40f6fdd72049bbf1f4fdf2059d9de0a429569c538e076f54719a0fd98a7c0006",
      "transactionIndex": "0x74",
      "blockHash": "0xcb432a87b3a56efab31162a17942f729915425eadc849109ac4641b6ad476a43",
      "blockNumber": "0x9b0e1d",
      "gasUsed": "0xbaca",
      "effectiveGasPrice": "0x3b03ac93",
      "from": "0x499c8bb98c1962aa6329b515f918836024ee746f",
      "to": "0x000000000022d473030f116ddee9f6b43ac78ba3",
      "contractAddress": null
    },
    {
      "status": "0x1",
      "cumulativeGasUsed": "0x56065f",
      "logs": [
        {
          "address": "0xe03a1074c86cfedd5c142c4f04f1a1536e203543",
          "topics": [
            "0xdd466e674ea557f56295e2d0218a125ea4b4f0f6f3307b95f85e6110838d6438",
            "0x6bde4cab3bba55a9d59ea659d148a25067a169b3f6bed7f8f659a76f5776f16b",
            "0x0000000000000000000000001c7d4b196cb0c7b01d743fbc6116a902379c7238",
            "0x000000000000000000000000fff9976782d46cc05630d1f6ebab18b2324d6b14"
          ],
          "data": "0x0000000000000000000000000000000000000000000000000000000000000bb8000000000000000000000000000000000000000000000000000000000000003c00000000000000000000000080f33c8fa104a0c14112fba1f2577df69dcdc50000000000000000000000000000000000000000010000000000000000000000000000000000000000000000000000000000000000000000000000000000000000",
          "blockHash": "0xd324bf1bdd669373f986ac8f6272e5354973f5096e4606ac14c69da7b4dc02b5",
          "blockNumber": "0x9b0e1e",
          "blockTimestamp": "0x697dd8d0",
          "transactionHash": "0x6817c88a5cebefaf67523fe0d01713a074bfe5fb79ee0f2b14e4e206410238ef",
          "transactionIndex": "0x2d",
          "logIndex": "0x3c",
          "removed": false
        },
        {
          "address": "0x429ba70129df741b2ca2a85bc3a2a3328e5c09b4",
          "topics": [
            "0xddf252ad1be2c89b69c2b068fc378daa952ba7f163c4a11628f55a4df523b3ef",
            "0x0000000000000000000000000000000000000000000000000000000000000000",
            "0x000000000000000000000000499c8bb98c1962aa6329b515f918836024ee746f",
            "0x00000000000000000000000000000000000000000000000000000000000058dd"
          ],
          "data": "0x",
          "blockHash": "0xd324bf1bdd669373f986ac8f6272e5354973f5096e4606ac14c69da7b4dc02b5",
          "blockNumber": "0x9b0e1e",
          "blockTimestamp": "0x697dd8d0",
          "transactionHash": "0x6817c88a5cebefaf67523fe0d01713a074bfe5fb79ee0f2b14e4e206410238ef",
          "transactionIndex": "0x2d",
          "logIndex": "0x3d",
          "removed": false
        },
        {
          "address": "0xe03a1074c86cfedd5c142c4f04f1a1536e203543",
          "topics": [
            "0xf208f4912782fd25c7f114ca3723a2d5dd6f3bcc3ac8db5af63baa85f711d5ec",
            "0x6bde4cab3bba55a9d59ea659d148a25067a169b3f6bed7f8f659a76f5776f16b",
            "0x000000000000000000000000429ba70129df741b2ca2a85bc3a2a3328e5c09b4"
          ],
          "data": "0xffffffffffffffffffffffffffffffffffffffffffffffffffffffffffff5038000000000000000000000000000000000000000000000000000000000000afc8000000000000000000000000000000000000000000000000000000000000da5300000000000000000000000000000000000000000000000000000000000058dd",
          "blockHash": "0xd324bf1bdd669373f986ac8f6272e5354973f5096e4606ac14c69da7b4dc02b5",
          "blockNumber": "0x9b0e1e",
          "blockTimestamp": "0x697dd8d0",
          "transactionHash": "0x6817c88a5cebefaf67523fe0d01713a074bfe5fb79ee0f2b14e4e206410238ef",
          "transactionIndex": "0x2d",
          "logIndex": "0x3e",
          "removed": false
        },
        {
          "address": "0x80f33c8fa104a0c14112fba1f2577df69dcdc500",
          "topics": [
            "0xf390f40c2064f62062980daf6c9d4fb39b392ccfda15ab7d7c3eac63fdc06d8b",
            "0x000000000000000000000000429ba70129df741b2ca2a85bc3a2a3328e5c09b4",
            "0x6bde4cab3bba55a9d59ea659d148a25067a169b3f6bed7f8f659a76f5776f16b"
          ],
          "data": "0x000000000000000000000000000000000000000000000000000000000000da5300000000000000000000000000000000000000000000000000000000697dd8d00000000000000000000000000000000000000000000000000000000000aa36a7",
          "blockHash": "0xd324bf1bdd669373f986ac8f6272e5354973f5096e4606ac14c69da7b4dc02b5",
          "blockNumber": "0x9b0e1e",
          "blockTimestamp": "0x697dd8d0",
          "transactionHash": "0x6817c88a5cebefaf67523fe0d01713a074bfe5fb79ee0f2b14e4e206410238ef",
          "transactionIndex": "0x2d",
          "logIndex": "0x3f",
          "removed": false
        },
        {
          "address": "0x1c7d4b196cb0c7b01d743fbc6116a902379c7238",
          "topics": [
            "0xddf252ad1be2c89b69c2b068fc378daa952ba7f163c4a11628f55a4df523b3ef",
            "0x000000000000000000000000499c8bb98c1962aa6329b515f918836024ee746f",
            "0x000000000000000000000000e03a1074c86cfedd5c142c4f04f1a1536e203543"
          ],
          "data": "0x000000000000000000000000000000000000000000000000000000000000c350",
          "blockHash": "0xd324bf1bdd669373f986ac8f6272e5354973f5096e4606ac14c69da7b4dc02b5",
          "blockNumber": "0x9b0e1e",
          "blockTimestamp": "0x697dd8d0",
          "transactionHash": "0x6817c88a5cebefaf67523fe0d01713a074bfe5fb79ee0f2b14e4e206410238ef",
          "transactionIndex": "0x2d",
          "logIndex": "0x40",
          "removed": false
        },
        {
          "address": "0xfff9976782d46cc05630d1f6ebab18b2324d6b14",
          "topics": [
            "0xddf252ad1be2c89b69c2b068fc378daa952ba7f163c4a11628f55a4df523b3ef",
            "0x000000000000000000000000499c8bb98c1962aa6329b515f918836024ee746f",
            "0x000000000000000000000000e03a1074c86cfedd5c142c4f04f1a1536e203543"
          ],
          "data": "0x000000000000000000000000000000000000000000000000000000000000c350",
          "blockHash": "0xd324bf1bdd669373f986ac8f6272e5354973f5096e4606ac14c69da7b4dc02b5",
          "blockNumber": "0x9b0e1e",
          "blockTimestamp": "0x697dd8d0",
          "transactionHash": "0x6817c88a5cebefaf67523fe0d01713a074bfe5fb79ee0f2b14e4e206410238ef",
          "transactionIndex": "0x2d",
          "logIndex": "0x41",
          "removed": false
        }
      ],
      "logsBloom": "0x20000000001000000000001000000000000000000000000000000000080200000000000000000040084000000000000000000900000004000000000000000000100008000000000000000008000000000000000000000000000080000000000000000000020000000000000080000880000000000000104000000810000000000040000001100008000010000000080000000001080000000000000000200000000024000000000004000000000000000000008000400000000000000000000400000002000000000002000001000000000000002000000000001000000020001000000000000010000010000800000004000000000000010000000000000002",
      "type": "0x2",
      "transactionHash": "0x6817c88a5cebefaf67523fe0d01713a074bfe5fb79ee0f2b14e4e206410238ef",
      "transactionIndex": "0x2d",
      "blockHash": "0xd324bf1bdd669373f986ac8f6272e5354973f5096e4606ac14c69da7b4dc02b5",
      "blockNumber": "0x9b0e1e",
      "gasUsed": "0x7553b",
      "effectiveGasPrice": "0x4233adee",
      "from": "0x499c8bb98c1962aa6329b515f918836024ee746f",
      "to": "0x429ba70129df741b2ca2a85bc3a2a3328e5c09b4",
      "contractAddress": null
    }
  ],
  "libraries": [],
  "pending": [],
  "returns": {},
  "timestamp": 1769855184975,
  "chain": 11155111,
  "commit": "d09d4d2"
}