{
  "transactions": [
    {
      "hash": "0xe2515893dbf7df2ca68d3e9d00dae89970fbe4b4f2ada94fb518f8eec948d13c",
      "transactionType": "CALL",
      "contractName": null,
      "contractAddress": "0x1c7d4b196cb0c7b01d743fbc6116a902379c7238",
      "function": "approve(address,uint256)",
      "arguments": [
        "0x000000000022D473030F116dDEE9F6B43aC78BA3",
        "115792089237316195423570985008687907853269984665640564039457584007913129639935"
      ],
      "transaction": {
        "from": "0x499c8bb98c1962aa6329b515f918836024ee746f",
        "to": "0x1c7d4b196cb0c7b01d743fbc6116a902379c7238",
        "gas": "0xdca8",
        "value": "0x0",
        "input": "0x095ea7b3000000000000000000000000000000000022d473030f116ddee9f6b43ac78ba3ffffffffffffffffffffffffffffffffffffffffffffffffffffffffffffffff",
        "nonce": "0x11e",
        "chainId": "0xaa36a7"
      },
      "additionalContracts": [],
      "isFixedGasLimit": false
    },
    {
      "hash": "0x425007b6981db1be749bd0594034f9a769558bcfdcc08d2ffcac96fb8d18be21",
      "transactionType": "CALL",
      "contractName": null,
      "contractAddress": "0x000000000022d473030f116ddee9f6b43ac78ba3",
      "function": "approve(address,address,uint160,uint48)",
      "arguments": [
        "0x1c7D4B196Cb0C7B01d743Fbc6116a902379C7238",
        "0x429ba70129df741B2Ca2a85BC3A2a3328e5c09b4",
        "1461501637330902918203684832716283019655932542975",
        "281474976710655"
      ],
      "transaction": {
        "from": "0x499c8bb98c1962aa6329b515f918836024ee746f",
        "to": "0x000000000022d473030f116ddee9f6b43ac78ba3",
        "gas": "0x96a0",
        "value": "0x0",
        "input": "0x87517c450000000000000000000000001c7d4b196cb0c7b01d743fbc6116a902379c7238000000000000000000000000429ba70129df741b2ca2a85bc3a2a3328e5c09b4000000000000000000000000ffffffffffffffffffffffffffffffffffffffff0000000000000000000000000000000000000000000000000000ffffffffffff",
        "nonce": "0x11f",
        "chainId": "0xaa36a7"
      },
      "additionalContracts": [],
      "isFixedGasLimit": false
    },
    {
      "hash": "0x65c7421ae1d29fe25c61002480198625b98f059c5320598e9873fbe85be0761d",
      "transactionType": "CALL",
      "contractName": null,
      "contractAddress": "0xfff9976782d46cc05630d1f6ebab18b2324d6b14",
      "function": "approve(address,uint256)",
      "arguments": [
        "0x000000000022D473030F116dDEE9F6B43aC78BA3",
        "115792089237316195423570985008687907853269984665640564039457584007913129639935"
      ],
      "transaction": {
        "from": "0x499c8bb98c1962aa6329b515f918836024ee746f",
        "to": "0xfff9976782d46cc05630d1f6ebab18b2324d6b14",
        "gas": "0x8e76",
        "value": "0x0",
        "input": "0x095ea7b3000000000000000000000000000000000022d473030f116ddee9f6b43ac78ba3ffffffffffffffffffffffffffffffffffffffffffffffffffffffffffffffff",
        "nonce": "0x120",
        "chainId": "0xaa36a7"
      },
      "additionalContracts": [],
      "isFixedGasLimit": false
    },
    {
      "hash": "0x9cf2f8ddfc9efc2c3d261cdfe86a3f3a1d3b183d64c098dcde202b19fc3ccd0c",
      "transactionType": "CALL",
      "contractName": null,
      "contractAddress": "0x000000000022d473030f116ddee9f6b43ac78ba3",
      "function": "approve(address,address,uint160,uint48)",
      "arguments": [
        "0xfFf9976782d46CC05630D1f6eBAb18b2324d6B14",
        "0x429ba70129df741B2Ca2a85BC3A2a3328e5c09b4",
        "1461501637330902918203684832716283019655932542975",
        "281474976710655"
      ],
      "transaction": {
        "from": "0x499c8bb98c1962aa6329b515f918836024ee746f",
        "to": "0x000000000022d473030f116ddee9f6b43ac78ba3",
        "gas": "0x96a0",
        "value": "0x0",
        "input": "0x87517c45000000000000000000000000fff9976782d46cc05630d1f6ebab18b2324d6b14000000000000000000000000429ba70129df741b2ca2a85bc3a2a3328e5c09b4000000000000000000000000ffffffffffffffffffffffffffffffffffffffff0000000000000000000000000000000000000000000000000000ffffffffffff",
        "nonce": "0x121",
        "chainId": "0xaa36a7"
      },
      "additionalContracts": [],
      "isFixedGasLimit": false
    },
    {
      "hash": "0x96a5fe25476b3d66313bafc26f7e4d9807f2146059bc5181e3baceae4688ab5c",
      "transactionType": "CALL",
      "contractName": null,
      "contractAddress": "0x429ba70129df741b2ca2a85bc3a2a3328e5c09b4",
      "function": "multicall(bytes[])",
      "arguments": [
        "[0xf70204050000000000000000000000001c7d4b196cb0c7b01d743fbc6116a902379c7238000000000000000000000000fff9976782d46cc05630d1f6ebab18b2324d6b140000000000000000000000000000000000000000000000000000000000000bb8000000000000000000000000000000000000000000000000000000000000003c0000000000000000000000000000000000000000000000000000000000000000000000000000000000000000000000000000000100000000000000000000000000000000000000000000000000000000000000000000000000000000000000e00000000000000000000000000000000000000000000000000000000000000000, 0xdd46508f0000000000000000000000000000000000000000000000000000000000000040000000000000000000000000000000000000000000000000000000006981015c0000000000000000000000000000000000000000000000000000000000000400000000000000000000000000000000000000000000000000000000000000004000000000000000000000000000000000000000000000000000000000000000800000000000000000000000000000000000000000000000000000000000000004020d14140000000000000000000000000000000000000000000000000000000000000000000000000000000000000000000000000000000000000000000000040000000000000000000000000000000000000000000000000000000000000080000000000000000000000000000000000000000000000000000000000000024000000000000000000000000000000000000000000000000000000000000002a0000000000000000000000000000000000000000000000000000000000000030000000000000000000000000000000000000000000000000000000000000001a00000000000000000000000001c7d4b196cb0c7b01d743fbc6116a902379c7238000000000000000000000000fff9976782d46cc05630d1f6ebab18b2324d6b140000000000000000000000000000000000000000000000000000000000000bb8000000000000000000000000000000000000000000000000000000000000003c0000000000000000000000000000000000000000000000000000000000000000ffffffffffffffffffffffffffffffffffffffffffffffffffffffffffff5038000000000000000000000000000000000000000000000000000000000000afc8000000000000000000000000000000000000000000000000000000000000da53000000000000000000000000000000000000000000000000000000000000c35100000000000000000000000000000000000000000000000000b1a2bc2ec50001000000000000000000000000499c8bb98c1962aa6329b515f918836024ee746f0000000000000000000000000000000000000000000000000000000000000180000000000000000000000000000000000000000000000000000000000000000000000000000000000000000000000000000000000000000000000000000000400000000000000000000000001c7d4b196cb0c7b01d743fbc6116a902379c7238000000000000000000000000fff9976782d46cc05630d1f6ebab18b2324d6b1400000000000000000000000000000000000000000000000000000000000000400000000000000000000000001c7d4b196cb0c7b01d743fbc6116a902379c7238000000000000000000000000499c8bb98c1962aa6329b515f918836024ee746f0000000000000000000000000000000000000000000000000000000000000040000000000000000000000000fff9976782d46cc05630d1f6ebab18b2324d6b14000000000000000000000000499c8bb98c1962aa6329b515f918836024ee746f]"
      ],
      "transaction": {
        "from": "0x499c8bb98c1962aa6329b515f918836024ee746f",
        "to": "0x429ba70129df741b2ca2a85bc3a2a3328e5c09b4",
        "gas": "0x8a34f",
        "value": "0x0",
        "input": "0xac9650d800000000000000000000000000000000000000000000000000000000000000200000000000000000000000000000000000000000000000000000000000000002000000000000000000000000000000000000000000000000000000000000004000000000000000000000000000000000000000000000000000000000000001800000000000000000000000000000000000000000000000000000000000000104f70204050000000000000000000000001c7d4b196cb0c7b01d743fbc6116a902379c7238000000000000000000000000fff9976782d46cc05630d1f6ebab18b2324d6b140000000000000000000000000000000000000000000000000000000000000bb8000000000000000000000000000000000000000000000000000000000000003c0000000000000000000000000000000000000000000000000000000000000000000000000000000000000000000000000000000100000000000000000000000000000000000000000000000000000000000000000000000000000000000000e00000000000000000000000000000000000000000000000000000000000000000000000000000000000000000000000000000000000000000000000000000000000000000000000000000000000000000000000000000000000000464dd46508f0000000000000000000000000000000000000000000000000000000000000040000000000000000000000000000000000000000000000000000000006981015c0000000000000000000000000000000000000000000000000000000000000400000000000000000000000000000000000000000000000000000000000000004000000000000000000000000000000000000000000000000000000000000000800000000000000000000000000000000000000000000000000000000000000004020d14140000000000000000000000000000000000000000000000000000000000000000000000000000000000000000000000000000000000000000000000040000000000000000000000000000000000000000000000000000000000000080000000000000000000000000000000000000000000000000000000000000024000000000000000000000000000000000000000000000000000000000000002a0000000000000000000000000000000000000000000000000000000000000030000000000000000000000000000000000000000000000000000000000000001a00000000000000000000000001c7d4b196cb0c7b01d743fbc6116a902379c7238000000000000000000000000fff9976782d46cc05630d1f6ebab18b2324d6b140000000000000000000000000000000000000000000000000000000000000bb8000000000000000000000000000000000000000000000000000000000000003c0000000000000000000000000000000000000000000000000000000000000000ffffffffffffffffffffffffffffffffffffffffffffffffffffffffffff5038000000000000000000000000000000000000000000000000000000000000afc8000000000000000000000000000000000000000000000000000000000000da53000000000000000000000000000000000000000000000000000000000000c35100000000000000000000000000000000000000000000000000b1a2bc2ec50001000000000000000000000000499c8bb98c1962aa6329b515f918836024ee746f0000000000000000000000000000000000000000000000000000000000000180000000000000000000000000000000000000000000000000000000000000000000000000000000000000000000000000000000000000000000000000000000400000000000000000000000001c7d4b196cb0c7b01d743fbc6116a902379c7238000000000000000000000000fff9976782d46cc05630d1f6ebab18b2324d6b1400000000000000000000000000000000000000000000000000000000000000400000000000000000000000001c7d4b196cb0c7b01d743fbc6116a902379c7238000000000000000000000000499c8bb98c1962aa6329b515f918836024ee746f0000000000000000000000000000000000000000000000000000000000000040000000000000000000000000fff9976782d46cc05630d1f6ebab18b2324d6b14000000000000000000000000499c8bb98c1962aa6329b515f918836024ee746f00000000000000000000000000000000000000000000000000000000",
        "nonce": "0x122",
        "chainId": "0xaa36a7"
      },
      "additionalContracts": [],
      "isFixedGasLimit": false
    }
  ],
  "receipts": [
    {
      "status": "0x1",
      "cumulativeGasUsed": "0x2ca3c49",
      "logs": [
        {
          "address": "0x1c7d4b196cb0c7b01d743fbc6116a902379c7238",
          "topics": [
            "0x8c5be1e5ebec7d5bd14f71427d1e84f3dd0314c0f7b2291e5b200ac8c7c3b925",
            "0x000000000000000000000000499c8bb98c1962aa6329b515f918836024ee746f",
            "0x000000000000000000000000000000000022d473030f116ddee9f6b43ac78ba3"
          ],
          "data": "0xffffffffffffffffffffffffffffffffffffffffffffffffffffffffffffffff",
          "blockHash": "0xd682940cfa5d2b0a89f8da2a091f618676f4d625b0fecd3a4841dc83181eb909",
          "blockNumber": "0x9b4cc1",
          "blockTimestamp": "0x6980f370",
          "transactionHash": "0xe2515893dbf7df2ca68d3e9d00dae89970fbe4b4f2ada94fb518f8eec948d13c",
          "transactionIndex": "0x40",
          "logIndex": "0x6a",
          "removed": false
        }
      ],
      "logsBloom": "0x00000000000000000000000000000000000000000000000000000000000200000000000000000000000000000000000000000000800000000000000000200000000000000000000000004000000000000000000000000800000000000000000000000000000000000000000000000000000000000000004000000000000000000000000000100000000000000000080000000000000000000000000000000000020000000000000000000000000000000000000000000000000000000000000000000000000000000000000000000000000000000000000000000000000000000010000000000000000010000800000000000000000000000000000000000000",
      "type": "0x2",
      "transactionHash": "0xe2515893dbf7df2ca68d3e9d00dae89970fbe4b4f2ada94fb518f8eec948d13c",
      "transactionIndex": "0x40",
      "blockHash": "0xd682940cfa5d2b0a89f8da2a091f618676f4d625b0fecd3a4841dc83181eb909",
      "blockNumber": "0x9b4cc1",
      "gasUsed": "0x96e1",
      "effectiveGasPrice": "0x37206a07",
      "from": "0x499c8bb98c1962aa6329b515f918836024ee746f",
      "to": "0x1c7d4b196cb0c7b01d743fbc6116a902379c7238",
      "contractAddress": null
    },
    {
      "status": "0x1",
      "cumulativeGasUsed": "0x2caa957",
      "logs": [
        {
          "address": "0x000000000022d473030f116ddee9f6b43ac78ba3",
          "topics": [
            "0xda9fa7c1b00402c17d0161b249b1ab8bbec047c5a52207b9c112deffd817036b",
            "0x000000000000000000000000499c8bb98c1962aa6329b515f918836024ee746f",
            "0x0000000000000000000000001c7d4b196cb0c7b01d743fbc6116a902379c7238",
            "0x000000000000000000000000429ba70129df741b2ca2a85bc3a2a3328e5c09b4"
          ],
          "data": "0x000000000000000000000000ffffffffffffffffffffffffffffffffffffffff0000000000000000000000000000000000000000000000000000ffffffffffff",
          "blockHash": "0xd682940cfa5d2b0a89f8da2a091f618676f4d625b0fecd3a4841dc83181eb909",
          "blockNumber": "0x9b4cc1",
          "blockTimestamp": "0x6980f370",
          "transactionHash": "0x425007b6981db1be749bd0594034f9a769558bcfdcc08d2ffcac96fb8d18be21",
          "transactionIndex": "0x41",
          "logIndex": "0x6b",
          "removed": false
        }
      ],
      "logsBloom": "0x00010000000000000000000000000000000000000000000000000000000000000000000000000040080000000000000000000000000004000000000000080000100000000000000000000000000000000000000000000000000000000000000000000000000000000000000000000000000000000000004000000800000000000020000000000000000000000000080000000000000000000000000000000000000000000000000000000000000000000000008000000000000000080000000000000000000000000000000000000000000000000000000040000000000000000000000000000000000000000800000000000000000000000000000000000400",
      "type": "0x2",
      "transactionHash": "0x425007b6981db1be749bd0594034f9a769558bcfdcc08d2ffcac96fb8d18be21",
      "transactionIndex": "0x41",
      "blockHash": "0xd682940cfa5d2b0a89f8da2a091f618676f4d625b0fecd3a4841dc83181eb909",
      "blockNumber": "0x9b4cc1",
      "gasUsed": "0x6d0e",
      "effectiveGasPrice": "0x37206a07",
      "from": "0x499c8bb98c1962aa6329b515f918836024ee746f",
      "to": "0x000000000022d473030f116ddee9f6b43ac78ba3",
      "contractAddress": null
    },
    {
      "status": "0x1",
      "cumulativeGasUsed": "0x2cb107b",
      "logs": [
        {
          "address": "0xfff9976782d46cc05630d1f6ebab18b2324d6b14",
          "topics": [
            "0x8c5be1e5ebec7d5bd14f71427d1e84f3dd0314c0f7b2291e5b200ac8c7c3b925",
            "0x000000000000000000000000499c8bb98c1962aa6329b515f918836024ee746f",
            "0x000000000000000000000000000000000022d473030f116ddee9f6b43ac78ba3"
          ],
          "data": "0xffffffffffffffffffffffffffffffffffffffffffffffffffffffffffffffff",
          "blockHash": "0xd682940cfa5d2b0a89f8da2a091f618676f4d625b0fecd3a4841dc83181eb909",
          "blockNumber": "0x9b4cc1",
          "blockTimestamp": "0x6980f370",
          "transactionHash": "0x65c7421ae1d29fe25c61002480198625b98f059c5320598e9873fbe85be0761d",
          "transactionIndex": "0x42",
          "logIndex": "0x6c",
          "removed": false
        }
      ],
      "logsBloom": "0x00000000000000000000000000000000000000000000000000000000000000000000000000000000000000000000000000000000800000000000000000200000000000000000000000004000000000000000000000000800000000000000000000000000000000000000000000000000000000000000004000000000000000000040000000000000000000000000080000000000000000000000000000000000020020000000000000000000000000000000000000000000000000000000000000000000000000000002000000000000000000000000000000000000000000000010000000000000000000000800000000000000000000000000000000000000",
      "type": "0x2",
      "transactionHash": "0x65c7421ae1d29fe25c61002480198625b98f059c5320598e9873fbe85be0761d",
      "transactionIndex": "0x42",
      "blockHash": "0xd682940cfa5d2b0a89f8da2a091f618676f4d625b0fecd3a4841dc83181eb909",
      "blockNumber": "0x9b4cc1",
      "gasUsed": "0x6724",
      "effectiveGasPrice": "0x37206a07",
      "from": "0x499c8bb98c1962aa6329b515f918836024ee746f",
      "to": "0xfff9976782d46cc05630d1f6ebab18b2324d6b14",
      "contractAddress": null
    },
    {
      "status": "0x1",
      "cumulativeGasUsed": "0x2cb7d89",
      "logs": [
        {
          "address": "0x000000000022d473030f116ddee9f6b43ac78ba3",
          "topics": [
            "0xda9fa7c1b00402c17d0161b249b1ab8bbec047c5a52207b9c112deffd817036b",
            "0x000000000000000000000000499c8bb98c1962aa6329b515f918836024ee746f",
            "0x000000000000000000000000fff9976782d46cc05630d1f6ebab18b2324d6b14",
            "0x000000000000000000000000429ba70129df741b2ca2a85bc3a2a3328e5c09b4"
          ],
          "data": "0x000000000000000000000000ffffffffffffffffffffffffffffffffffffffff0000000000000000000000000000000000000000000000000000ffffffffffff",
          "blockHash": "0xd682940cfa5d2b0a89f8da2a091f618676f4d625b0fecd3a4841dc83181eb909",
          "blockNumber": "0x9b4cc1",
          "blockTimestamp": "0x6980f370",
          "transactionHash": "0x9cf2f8ddfc9efc2c3d261cdfe86a3f3a1d3b183d64c098dcde202b19fc3ccd0c",
          "transactionIndex": "0x43",
          "logIndex": "0x6d",
          "removed": false
        }
      ],
      "logsBloom": "0x00010000001000000000000000000000000000000000000000000000000000000000000000000040080000000000000000000800000000000000000000080000000000000000000000000000000000000000000000000000000000000000000000000000000000000000000000000000000000000000004000000800000000000020000000000000000000000000080000000000000000000000000000000000000000000000000000000000000000000000000000000000000000080000000000000000000000000000000001000000000000000000000040000000000000000000000000000000000000000800000000000000000000000000000000000400",
      "type": "0x2",
      "transactionHash": "0x9cf2f8ddfc9efc2c3d261cdfe86a3f3a1d3b183d64c098dcde202b19fc3ccd0c",
      "transactionIndex": "0x43",
      "blockHash": "0xd682940cfa5d2b0a89f8da2a091f618676f4d625b0fecd3a4841dc83181eb909",
      "blockNumber": "0x9b4cc1",
      "gasUsed": "0x6d0e",
      "effectiveGasPrice": "0x37206a07",
      "from": "0x499c8bb98c1962aa6329b515f918836024ee746f",
      "to": "0x000000000022d473030f116ddee9f6b43ac78ba3",
      "contractAddress": null
    },
    {
      "status": "0x1",
      "cumulativeGasUsed": "0x2d1658b",
      "logs": [
        {
          "address": "0x429ba70129df741b2ca2a85bc3a2a3328e5c09b4",
          "topics": [
            "0xddf252ad1be2c89b69c2b068fc378daa952ba7f163c4a11628f55a4df523b3ef",
            "0x0000000000000000000000000000000000000000000000000000000000000000",
            "0x000000000000000000000000499c8bb98c1962aa6329b515f918836024ee746f",
            "0x000000000000000000000000000000000000000000000000000000000000591f"
          ],
          "data": "0x",
          "blockHash": "0xd682940cfa5d2b0a89f8da2a091f618676f4d625b0fecd3a4841dc83181eb909",
          "blockNumber": "0x9b4cc1",
          "blockTimestamp": "0x6980f370",
          "transactionHash": "0x96a5fe25476b3d66313bafc26f7e4d9807f2146059bc5181e3baceae4688ab5c",
          "transactionIndex": "0x44",
          "logIndex": "0x6e",
          "removed": false
        },
        {
          "address": "0xe03a1074c86cfedd5c142c4f04f1a1536e203543",
          "topics": [
            "0xf208f4912782fd25c7f114ca3723a2d5dd6f3bcc3ac8db5af63baa85f711d5ec",
            "0x0c5089eb2863310ecab41eb94f2705ce37ce455a0f64a9ee627c7470b43161e8",
            "0x000000000000000000000000429ba70129df741b2ca2a85bc3a2a3328e5c09b4"
          ],
          "data": "0xffffffffffffffffffffffffffffffffffffffffffffffffffffffffffff5038000000000000000000000000000000000000000000000000000000000000afc8000000000000000000000000000000000000000000000000000000000000da53000000000000000000000000000000000000000000000000000000000000591f",
          "blockHash": "0xd682940cfa5d2b0a89f8da2a091f618676f4d625b0fecd3a4841dc83181eb909",
          "blockNumber": "0x9b4cc1",
          "blockTimestamp": "0x6980f370",
          "transactionHash": "0x96a5fe25476b3d66313bafc26f7e4d9807f2146059bc5181e3baceae4688ab5c",
          "transactionIndex": "0x44",
          "logIndex": "0x6f",
          "removed": false
        },
        {
          "address": "0x1c7d4b196cb0c7b01d743fbc6116a902379c7238",
          "topics": [
            "0xddf252ad1be2c89b69c2b068fc378daa952ba7f163c4a11628f55a4df523b3ef",
            "0x000000000000000000000000499c8bb98c1962aa6329b515f918836024ee746f",
            "0x000000000000000000000000e03a1074c86cfedd5c142c4f04f1a1536e203543"
          ],
          "data": "0x000000000000000000000000000000000000000000000000000000000000bcdc",
          "blockHash": "0xd682940cfa5d2b0a89f8da2a091f618676f4d625b0fecd3a4841dc83181eb909",
          "blockNumber": "0x9b4cc1",
          "blockTimestamp": "0x6980f370",
          "transactionHash": "0x96a5fe25476b3d66313bafc26f7e4d9807f2146059bc5181e3baceae4688ab5c",
          "transactionIndex": "0x44",
          "logIndex": "0x70",
          "removed": false
        },
        {
          "address": "0xfff9976782d46cc05630d1f6ebab18b2324d6b14",
          "topics": [
            "0xddf252ad1be2c89b69c2b068fc378daa952ba7f163c4a11628f55a4df523b3ef",
            "0x000000000000000000000000499c8bb98c1962aa6329b515f918836024ee746f",
            "0x000000000000000000000000e03a1074c86cfedd5c142c4f04f1a1536e203543"
          ],
          "data": "0x000000000000000000000000000000000000000000000000000000000000c9f6",
          "blockHash": "0xd682940cfa5d2b0a89f8da2a091f618676f4d625b0fecd3a4841dc83181eb909",
          "blockNumber": "0x9b4cc1",
          "blockTimestamp": "0x6980f370",
          "transactionHash": "0x96a5fe25476b3d66313bafc26f7e4d9807f2146059bc5181e3baceae4688ab5c",
          "transactionIndex": "0x44",
          "logIndex": "0x71",
          "removed": false
        }
      ],
      "logsBloom": "0x00800000000000000000001000000000000000000000000000000000080208000000000000000040090000000000000000000100000000000000000000000000000000000000000040000008000000000000000000000000000000000000000000000000020000000040000080000800000000000000104000000810000000000040000001100000000010000000080000000000000000000000000000000000000024800000000000000000000000000000000000400000000000000000000000000002000000000002000000000000000000000000000000001000000020001000000000000000000010000800000004000000000000000000000000000000",
      "type": "0x2",
      "transactionHash": "0x96a5fe25476b3d66313bafc26f7e4d9807f2146059bc5181e3baceae4688ab5c",
      "transactionIndex": "0x44",
      "blockHash": "0xd682940cfa5d2b0a89f8da2a091f618676f4d625b0fecd3a4841dc83181eb909",
      "blockNumber": "0x9b4cc1",
      "gasUsed": "0x5e802",
      "effectiveGasPrice": "0x37206a07",
      "from": "0x499c8bb98c1962aa6329b515f918836024ee746f",
      "to": "0x429ba70129df741b2ca2a85bc3a2a3328e5c09b4",
      "contractAddress": null
    }
  ],
  "libraries": [],
  "pending": [],
  "returns": {},
  "timestamp": 1770058609001,
  "chain": 11155111,
  "commit": "a49bed9"
}