{
  "transactions": [
    {
      "hash": "0x63f61ebb5587911d9027413450b4d43e07c1db010b1937b10d9d646327cbdfbd",
      "transactionType": "CALL",
      "contractName": null,
      "contractAddress": "0x1c7d4b196cb0c7b01d743fbc6116a902379c7238",
      "function": "approve(address,uint256)",
      "arguments": [
        "0x000000000022D473030F116dDEE9F6B43aC78BA3",
        "115792089237316195423570985008687907853269984665640564039457584007913129639935"
      ],
      "transaction": {
        "from": "0x499c8bb98c1962aa6329b515f918836024ee746f",
        "to": "0x1c7d4b196cb0c7b01d743fbc6116a902379c7238",
        "gas": "0xdca8",
        "value": "0x0",
        "input": "0x095ea7b3000000000000000000000000000000000022d473030f116ddee9f6b43ac78ba3ffffffffffffffffffffffffffffffffffffffffffffffffffffffffffffffff",
        "nonce": "0x123",
        "chainId": "0xaa36a7"
      },
      "additionalContracts": [],
      "isFixedGasLimit": false
    },
    {
      "hash": "0xf2227354850534085bda72a5d7521e7e6a521bc3e0d5d273c50a277fd1c150e3",
      "transactionType": "CALL",
      "contractName": null,
      "contractAddress": "0x000000000022d473030f116ddee9f6b43ac78ba3",
      "function": "approve(address,address,uint160,uint48)",
      "arguments": [
        "0x1c7D4B196Cb0C7B01d743Fbc6116a902379C7238",
        "0x429ba70129df741B2Ca2a85BC3A2a3328e5c09b4",
        "1461501637330902918203684832716283019655932542975",
        "281474976710655"
      ],
      "transaction": {
        "from": "0x499c8bb98c1962aa6329b515f918836024ee746f",
        "to": "0x000000000022d473030f116ddee9f6b43ac78ba3",
        "gas": "0x96a0",
        "value": "0x0",
        "input": "0x87517c450000000000000000000000001c7d4b196cb0c7b01d743fbc6116a902379c7238000000000000000000000000429ba70129df741b2ca2a85bc3a2a3328e5c09b4000000000000000000000000ffffffffffffffffffffffffffffffffffffffff0000000000000000000000000000000000000000000000000000ffffffffffff",
        "nonce": "0x124",
        "chainId": "0xaa36a7"
      },
      "additionalContracts": [],
      "isFixedGasLimit": false
    },
    {
      "hash": "0x056267bcbd96bf2d3c7185ebe289dbceaccab4652806e38f1a8d56d2b1acc1e4",
      "transactionType": "CALL",
      "contractName": null,
      "contractAddress": "0xfff9976782d46cc05630d1f6ebab18b2324d6b14",
      "function": "approve(address,uint256)",
      "arguments": [
        "0x000000000022D473030F116dDEE9F6B43aC78BA3",
        "115792089237316195423570985008687907853269984665640564039457584007913129639935"
      ],
      "transaction": {
        "from": "0x499c8bb98c1962aa6329b515f918836024ee746f",
        "to": "0xfff9976782d46cc05630d1f6ebab18b2324d6b14",
        "gas": "0x8e76",
        "value": "0x0",
        "input": "0x095ea7b3000000000000000000000000000000000022d473030f116ddee9f6b43ac78ba3ffffffffffffffffffffffffffffffffffffffffffffffffffffffffffffffff",
        "nonce": "0x125",
        "chainId": "0xaa36a7"
      },
      "additionalContracts": [],
      "isFixedGasLimit": false
    },
    {
      "hash": "0xeb57f230d34863e5373b17a9db28e2d273cce5fa3defe24dda6fec0bb2913248",
      "transactionType": "CALL",
      "contractName": null,
      "contractAddress": "0x000000000022d473030f116ddee9f6b43ac78ba3",
      "function": "approve(address,address,uint160,uint48)",
      "arguments": [
        "0xfFf9976782d46CC05630D1f6eBAb18b2324d6B14",
        "0x429ba70129df741B2Ca2a85BC3A2a3328e5c09b4",
        "1461501637330902918203684832716283019655932542975",
        "281474976710655"
      ],
      "transaction": {
        "from": "0x499c8bb98c1962aa6329b515f918836024ee746f",
        "to": "0x000000000022d473030f116ddee9f6b43ac78ba3",
        "gas": "0x96a0",
        "value": "0x0",
        "input": "0x87517c45000000000000000000000000fff9976782d46cc05630d1f6ebab18b2324d6b14000000000000000000000000429ba70129df741b2ca2a85bc3a2a3328e5c09b4000000000000000000000000ffffffffffffffffffffffffffffffffffffffff0000000000000000000000000000000000000000000000000000ffffffffffff",
        "nonce": "0x126",
        "chainId": "0xaa36a7"
      },
      "additionalContracts": [],
      "isFixedGasLimit": false
    },
    {
      "hash": "0x98a3d3c436655184e7ed09bf356988fbd283df3f5ab53ad3ae93c7b2045c3c25",
      "transactionType": "CALL",
      "contractName": null,
      "contractAddress": "0x429ba70129df741b2ca2a85bc3a2a3328e5c09b4",
      "function": "multicall(bytes[])",
      "arguments": [
        "[0xf70204050000000000000000000000001c7d4b196cb0c7b01d743fbc6116a902379c7238000000000000000000000000fff9976782d46cc05630d1f6ebab18b2324d6b140000000000000000000000000000000000000000000000000000000000000bb8000000000000000000000000000000000000000000000000000000000000003c000000000000000000000000aba7ec5298eb6d179926b5bf605fec3f2e1cc500000000000000000000000000000000000000000100000000000000000000000000000000000000000000000000000000000000000000000000000000000000e00000000000000000000000000000000000000000000000000000000000000000, 0xdd46508f000000000000000000000000000000000000000000000000000000000000004000000000000000000000000000000000000000000000000000000000698101a40000000000000000000000000000000000000000000000000000000000000400000000000000000000000000000000000000000000000000000000000000004000000000000000000000000000000000000000000000000000000000000000800000000000000000000000000000000000000000000000000000000000000004020d14140000000000000000000000000000000000000000000000000000000000000000000000000000000000000000000000000000000000000000000000040000000000000000000000000000000000000000000000000000000000000080000000000000000000000000000000000000000000000000000000000000024000000000000000000000000000000000000000000000000000000000000002a0000000000000000000000000000000000000000000000000000000000000030000000000000000000000000000000000000000000000000000000000000001a00000000000000000000000001c7d4b196cb0c7b01d743fbc6116a902379c7238000000000000000000000000fff9976782d46cc05630d1f6ebab18b2324d6b140000000000000000000000000000000000000000000000000000000000000bb8000000000000000000000000000000000000000000000000000000000000003c000000000000000000000000aba7ec5298eb6d179926b5bf605fec3f2e1cc500ffffffffffffffffffffffffffffffffffffffffffffffffffffffffffff5038000000000000000000000000000000000000000000000000000000000000afc8000000000000000000000000000000000000000000000000000000000000da53000000000000000000000000000000000000000000000000000000000000c35100000000000000000000000000000000000000000000000000b1a2bc2ec50001000000000000000000000000499c8bb98c1962aa6329b515f918836024ee746f0000000000000000000000000000000000000000000000000000000000000180000000000000000000000000000000000000000000000000000000000000000000000000000000000000000000000000000000000000000000000000000000400000000000000000000000001c7d4b196cb0c7b01d743fbc6116a902379c7238000000000000000000000000fff9976782d46cc05630d1f6ebab18b2324d6b1400000000000000000000000000000000000000000000000000000000000000400000000000000000000000001c7d4b196cb0c7b01d743fbc6116a902379c7238000000000000000000000000499c8bb98c1962aa6329b515f918836024ee746f0000000000000000000000000000000000000000000000000000000000000040000000000000000000000000fff9976782d46cc05630d1f6ebab18b2324d6b14000000000000000000000000499c8bb98c1962aa6329b515f918836024ee746f]"
      ],
      "transaction": {
        "from": "0x499c8bb98c1962aa6329b515f918836024ee746f",
        "to": "0x429ba70129df741b2ca2a85bc3a2a3328e5c09b4",
        "gas": "0x9c4a6",
        "value": "0x0",
        "input": "0xac9650d800000000000000000000000000000000000000000000000000000000000000200000000000000000000000000000000000000000000000000000000000000002000000000000000000000000000000000000000000000000000000000000004000000000000000000000000000000000000000000000000000000000000001800000000000000000000000000000000000000000000000000000000000000104f70204050000000000000000000000001c7d4b196cb0c7b01d743fbc6116a902379c7238000000000000000000000000fff9976782d46cc05630d1f6ebab18b2324d6b140000000000000000000000000000000000000000000000000000000000000bb8000000000000000000000000000000000000000000000000000000000000003c000000000000000000000000aba7ec5298eb6d179926b5bf605fec3f2e1cc500000000000000000000000000000000000000000100000000000000000000000000000000000000000000000000000000000000000000000000000000000000e00000000000000000000000000000000000000000000000000000000000000000000000000000000000000000000000000000000000000000000000000000000000000000000000000000000000000000000000000000000000000464dd46508f000000000000000000000000000000000000000000000000000000000000004000000000000000000000000000000000000000000000000000000000698101a40000000000000000000000000000000000000000000000000000000000000400000000000000000000000000000000000000000000000000000000000000004000000000000000000000000000000000000000000000000000000000000000800000000000000000000000000000000000000000000000000000000000000004020d14140000000000000000000000000000000000000000000000000000000000000000000000000000000000000000000000000000000000000000000000040000000000000000000000000000000000000000000000000000000000000080000000000000000000000000000000000000000000000000000000000000024000000000000000000000000000000000000000000000000000000000000002a0000000000000000000000000000000000000000000000000000000000000030000000000000000000000000000000000000000000000000000000000000001a00000000000000000000000001c7d4b196cb0c7b01d743fbc6116a902379c7238000000000000000000000000fff9976782d46cc05630d1f6ebab18b2324d6b140000000000000000000000000000000000000000000000000000000000000bb8000000000000000000000000000000000000000000000000000000000000003c000000000000000000000000aba7ec5298eb6d179926b5bf605fec3f2e1cc500ffffffffffffffffffffffffffffffffffffffffffffffffffffffffffff5038000000000000000000000000000000000000000000000000000000000000afc8000000000000000000000000000000000000000000000000000000000000da53000000000000000000000000000000000000000000000000000000000000c35100000000000000000000000000000000000000000000000000b1a2bc2ec50001000000000000000000000000499c8bb98c1962aa6329b515f918836024ee746f0000000000000000000000000000000000000000000000000000000000000180000000000000000000000000000000000000000000000000000000000000000000000000000000000000000000000000000000000000000000000000000000400000000000000000000000001c7d4b196cb0c7b01d743fbc6116a902379c7238000000000000000000000000fff9976782d46cc05630d1f6ebab18b2324d6b1400000000000000000000000000000000000000000000000000000000000000400000000000000000000000001c7d4b196cb0c7b01d743fbc6116a902379c7238000000000000000000000000499c8bb98c1962aa6329b515f918836024ee746f0000000000000000000000000000000000000000000000000000000000000040000000000000000000000000fff9976782d46cc05630d1f6ebab18b2324d6b14000000000000000000000000499c8bb98c1962aa6329b515f918836024ee746f00000000000000000000000000000000000000000000000000000000",
        "nonce": "0x127",
        "chainId": "0xaa36a7"
      },
      "additionalContracts": [],
      "isFixedGasLimit": false
    }
  ],
  "receipts": [
    {
      "status": "0x1",
      "cumulativeGasUsed": "0x6c4336",
      "logs": [
        {
          "address": "0x1c7d4b196cb0c7b01d743fbc6116a902379c7238",
          "topics": [
            "0x8c5be1e5ebec7d5bd14f71427d1e84f3dd0314c0f7b2291e5b200ac8c7c3b925",
            "0x000000000000000000000000499c8bb98c1962aa6329b515f918836024ee746f",
            "0x000000000000000000000000000000000022d473030f116ddee9f6b43ac78ba3"
          ],
          "data": "0xffffffffffffffffffffffffffffffffffffffffffffffffffffffffffffffff",
          "blockHash": "0x945ed227681ad086a3a9fa02a00b17636483cd92c12da781f3b4b0e2f2267cef",
          "blockNumber": "0x9b4cc6",
          "blockTimestamp": "0x6980f3ac",
          "transactionHash": "0x63f61ebb5587911d9027413450b4d43e07c1db010b1937b10d9d646327cbdfbd",
          "transactionIndex": "0x36",
          "logIndex": "0x3b",
          "removed": false
        }
      ],
      "logsBloom": "0x00000000000000000000000000000000000000000000000000000000000200000000000000000000000000000000000000000000800000000000000000200000000000000000000000004000000000000000000000000800000000000000000000000000000000000000000000000000000000000000004000000000000000000000000000100000000000000000080000000000000000000000000000000000020000000000000000000000000000000000000000000000000000000000000000000000000000000000000000000000000000000000000000000000000000000010000000000000000010000800000000000000000000000000000000000000",
      "type": "0x2",
      "transactionHash": "0x63f61ebb5587911d9027413450b4d43e07c1db010b1937b10d9d646327cbdfbd",
      "transactionIndex": "0x36",
      "blockHash": "0x945ed227681ad086a3a9fa02a00b17636483cd92c12da781f3b4b0e2f2267cef",
      "blockNumber": "0x9b4cc6",
      "gasUsed": "0x96e1",
      "effectiveGasPrice": "0x3ff560ce",
      "from": "0x499c8bb98c1962aa6329b515f918836024ee746f",
      "to": "0x1c7d4b196cb0c7b01d743fbc6116a902379c7238",
      "contractAddress": null
    },
    {
      "status": "0x1",
      "cumulativeGasUsed": "0x6cb044",
      "logs": [
        {
          "address": "0x000000000022d473030f116ddee9f6b43ac78ba3",
          "topics": [
            "0xda9fa7c1b00402c17d0161b249b1ab8bbec047c5a52207b9c112deffd817036b",
            "0x000000000000000000000000499c8bb98c1962aa6329b515f918836024ee746f",
            "0x0000000000000000000000001c7d4b196cb0c7b01d743fbc6116a902379c7238",
            "0x000000000000000000000000429ba70129df741b2ca2a85bc3a2a3328e5c09b4"
          ],
          "data": "0x000000000000000000000000ffffffffffffffffffffffffffffffffffffffff0000000000000000000000000000000000000000000000000000ffffffffffff",
          "blockHash": "0x945ed227681ad086a3a9fa02a00b17636483cd92c12da781f3b4b0e2f2267cef",
          "blockNumber": "0x9b4cc6",
          "blockTimestamp": "0x6980f3ac",
          "transactionHash": "0xf2227354850534085bda72a5d7521e7e6a521bc3e0d5d273c50a277fd1c150e3",
          "transactionIndex": "0x37",
          "logIndex": "0x3c",
          "removed": false
        }
      ],
      "logsBloom": "0x00010000000000000000000000000000000000000000000000000000000000000000000000000040080000000000000000000000000004000000000000080000100000000000000000000000000000000000000000000000000000000000000000000000000000000000000000000000000000000000004000000800000000000020000000000000000000000000080000000000000000000000000000000000000000000000000000000000000000000000008000000000000000080000000000000000000000000000000000000000000000000000000040000000000000000000000000000000000000000800000000000000000000000000000000000400",
      "type": "0x2",
      "transactionHash": "0xf2227354850534085bda72a5d7521e7e6a521bc3e0d5d273c50a277fd1c150e3",
      "transactionIndex": "0x37",
      "blockHash": "0x945ed227681ad086a3a9fa02a00b17636483cd92c12da781f3b4b0e2f2267cef",
      "blockNumber": "0x9b4cc6",
      "gasUsed": "0x6d0e",
      "effectiveGasPrice": "0x3ff560ce",
      "from": "0x499c8bb98c1962aa6329b515f918836024ee746f",
      "to": "0x000000000022d473030f116ddee9f6b43ac78ba3",
      "contractAddress": null
    },
    {
      "status": "0x1",
      "cumulativeGasUsed": "0x6d1768",
      "logs": [
        {
          "address": "0xfff9976782d46cc05630d1f6ebab18b2324d6b14",
          "topics": [
            "0x8c5be1e5ebec7d5bd14f71427d1e84f3dd0314c0f7b2291e5b200ac8c7c3b925",
            "0x000000000000000000000000499c8bb98c1962aa6329b515f918836024ee746f",
            "0x000000000000000000000000000000000022d473030f116ddee9f6b43ac78ba3"
          ],
          "data": "0xffffffffffffffffffffffffffffffffffffffffffffffffffffffffffffffff",
          "blockHash": "0x945ed227681ad086a3a9fa02a00b17636483cd92c12da781f3b4b0e2f2267cef",
          "blockNumber": "0x9b4cc6",
          "blockTimestamp": "0x6980f3ac",
          "transactionHash": "0x056267bcbd96bf2d3c7185ebe289dbceaccab4652806e38f1a8d56d2b1acc1e4",
          "transactionIndex": "0x38",
          "logIndex": "0x3d",
          "removed": false
        }
      ],
      "logsBloom": "0x00000000000000000000000000000000000000000000000000000000000000000000000000000000000000000000000000000000800000000000000000200000000000000000000000004000000000000000000000000800000000000000000000000000000000000000000000000000000000000000004000000000000000000040000000000000000000000000080000000000000000000000000000000000020020000000000000000000000000000000000000000000000000000000000000000000000000000002000000000000000000000000000000000000000000000010000000000000000000000800000000000000000000000000000000000000",
      "type": "0x2",
      "transactionHash": "0x056267bcbd96bf2d3c7185ebe289dbceaccab4652806e38f1a8d56d2b1acc1e4",
      "transactionIndex": "0x38",
      "blockHash": "0x945ed227681ad086a3a9fa02a00b17636483cd92c12da781f3b4b0e2f2267cef",
      "blockNumber": "0x9b4cc6",
      "gasUsed": "0x6724",
      "effectiveGasPrice": "0x3ff560ce",
      "from": "0x499c8bb98c1962aa6329b515f918836024ee746f",
      "to": "0xfff9976782d46cc05630d1f6ebab18b2324d6b14",
      "contractAddress": null
    },
    {
      "status": "0x1",
      "cumulativeGasUsed": "0x6d8476",
      "logs": [
        {
          "address": "0x000000000022d473030f116ddee9f6b43ac78ba3",
          "topics": [
            "0xda9fa7c1b00402c17d0161b249b1ab8bbec047c5a52207b9c112deffd817036b",
            "0x000000000000000000000000499c8bb98c1962aa6329b515f918836024ee746f",
            "0x000000000000000000000000fff9976782d46cc05630d1f6ebab18b2324d6b14",
            "0x000000000000000000000000429ba70129df741b2ca2a85bc3a2a3328e5c09b4"
          ],
          "data": "0x000000000000000000000000ffffffffffffffffffffffffffffffffffffffff0000000000000000000000000000000000000000000000000000ffffffffffff",
          "blockHash": "0x945ed227681ad086a3a9fa02a00b17636483cd92c12da781f3b4b0e2f2267cef",
          "blockNumber": "0x9b4cc6",
          "blockTimestamp": "0x6980f3ac",
          "transactionHash": "0xeb57f230d34863e5373b17a9db28e2d273cce5fa3defe24dda6fec0bb2913248",
          "transactionIndex": "0x39",
          "logIndex": "0x3e",
          "removed": false
        }
      ],
      "logsBloom": "0x00010000001000000000000000000000000000000000000000000000000000000000000000000040080000000000000000000800000000000000000000080000000000000000000000000000000000000000000000000000000000000000000000000000000000000000000000000000000000000000004000000800000000000020000000000000000000000000080000000000000000000000000000000000000000000000000000000000000000000000000000000000000000080000000000000000000000000000000001000000000000000000000040000000000000000000000000000000000000000800000000000000000000000000000000000400",
      "type": "0x2",
      "transactionHash": "0xeb57f230d34863e5373b17a9db28e2d273cce5fa3defe24dda6fec0bb2913248",
      "transactionIndex": "0x39",
      "blockHash": "0x945ed227681ad086a3a9fa02a00b17636483cd92c12da781f3b4b0e2f2267cef",
      "blockNumber": "0x9b4cc6",
      "gasUsed": "0x6d0e",
      "effectiveGasPrice": "0x3ff560ce",
      "from": "0x499c8bb98c1962aa6329b515f918836024ee746f",
      "to": "0x000000000022d473030f116ddee9f6b43ac78ba3",
      "contractAddress": null
    },
    {
      "status": "0x1",
      "cumulativeGasUsed": "0x7496e4",
      "logs": [
        {
          "address": "0xe03a1074c86cfedd5c142c4f04f1a1536e203543",
          "topics": [
            "0xdd466e674ea557f56295e2d0218a125ea4b4f0f6f3307b95f85e6110838d6438",
            "0x2b9016b34a2ab49879a45d1adbcf6e589ae7d479b1a5cb22ed7a31fe8339f5e7",
            "0x0000000000000000000000001c7d4b196cb0c7b01d743fbc6116a902379c7238",
            "0x000000000000000000000000fff9976782d46cc05630d1f6ebab18b2324d6b14"
          ],
          "data": "0x0000000000000000000000000000000000000000000000000000000000000bb8000000000000000000000000000000000000000000000000000000000000003c000000000000000000000000aba7ec5298eb6d179926b5bf605fec3f2e1cc50000000000000000000000000000000000000000010000000000000000000000000000000000000000000000000000000000000000000000000000000000000000",
          "blockHash": "0x945ed227681ad086a3a9fa02a00b17636483cd92c12da781f3b4b0e2f2267cef",
          "blockNumber": "0x9b4cc6",
          "blockTimestamp": "0x6980f3ac",
          "transactionHash": "0x98a3d3c436655184e7ed09bf356988fbd283df3f5ab53ad3ae93c7b2045c3c25",
          "transactionIndex": "0x3a",
          "logIndex": "0x3f",
          "removed": false
        },
        {
          "address": "0x429ba70129df741b2ca2a85bc3a2a3328e5c09b4",
          "topics": [
            "0xddf252ad1be2c89b69c2b068fc378daa952ba7f163c4a11628f55a4df523b3ef",
            "0x0000000000000000000000000000000000000000000000000000000000000000",
            "0x000000000000000000000000499c8bb98c1962aa6329b515f918836024ee746f",
            "0x0000000000000000000000000000000000000000000000000000000000005920"
          ],
          "data": "0x",
          "blockHash": "0x945ed227681ad086a3a9fa02a00b17636483cd92c12da781f3b4b0e2f2267cef",
          "blockNumber": "0x9b4cc6",
          "blockTimestamp": "0x6980f3ac",
          "transactionHash": "0x98a3d3c436655184e7ed09bf356988fbd283df3f5ab53ad3ae93c7b2045c3c25",
          "transactionIndex": "0x3a",
          "logIndex": "0x40",
          "removed": false
        },
        {
          "address": "0xe03a1074c86cfedd5c142c4f04f1a1536e203543",
          "topics": [
            "0xf208f4912782fd25c7f114ca3723a2d5dd6f3bcc3ac8db5af63baa85f711d5ec",
            "0x2b9016b34a2ab49879a45d1adbcf6e589ae7d479b1a5cb22ed7a31fe8339f5e7",
            "0x000000000000000000000000429ba70129df741b2ca2a85bc3a2a3328e5c09b4"
          ],
          "data": "0xffffffffffffffffffffffffffffffffffffffffffffffffffffffffffff5038000000000000000000000000000000000000000000000000000000000000afc8000000000000000000000000000000000000000000000000000000000000da530000000000000000000000000000000000000000000000000000000000005920",
          "blockHash": "0x945ed227681ad086a3a9fa02a00b17636483cd92c12da781f3b4b0e2f2267cef",
          "blockNumber": "0x9b4cc6",
          "blockTimestamp": "0x6980f3ac",
          "transactionHash": "0x98a3d3c436655184e7ed09bf356988fbd283df3f5ab53ad3ae93c7b2045c3c25",
          "transactionIndex": "0x3a",
          "logIndex": "0x41",
          "removed": false
        },
        {
          "address": "0xaba7ec5298eb6d179926b5bf605fec3f2e1cc500",
          "topics": [
            "0xf390f40c2064f62062980daf6c9d4fb39b392ccfda15ab7d7c3eac63fdc06d8b",
            "0x000000000000000000000000499c8bb98c1962aa6329b515f918836024ee746f",
            "0x2b9016b34a2ab49879a45d1adbcf6e589ae7d479b1a5cb22ed7a31fe8339f5e7"
          ],
          "data": "0x000000000000000000000000000000000000000000000000000000000000da53000000000000000000000000000000000000000000000000000000006980f3ac0000000000000000000000000000000000000000000000000000000000aa36a7",
          "blockHash": "0x945ed227681ad086a3a9fa02a00b17636483cd92c12da781f3b4b0e2f2267cef",
          "blockNumber": "0x9b4cc6",
          "blockTimestamp": "0x6980f3ac",
          "transactionHash": "0x98a3d3c436655184e7ed09bf356988fbd283df3f5ab53ad3ae93c7b2045c3c25",
          "transactionIndex": "0x3a",
          "logIndex": "0x42",
          "removed": false
        },
        {
          "address": "0x1c7d4b196cb0c7b01d743fbc6116a902379c7238",
          "topics": [
            "0xddf252ad1be2c89b69c2b068fc378daa952ba7f163c4a11628f55a4df523b3ef",
            "0x000000000000000000000000499c8bb98c1962aa6329b515f918836024ee746f",
            "0x000000000000000000000000e03a1074c86cfedd5c142c4f04f1a1536e203543"
          ],
          "data": "0x000000000000000000000000000000000000000000000000000000000000c350",
          "blockHash": "0x945ed227681ad086a3a9fa02a00b17636483cd92c12da781f3b4b0e2f2267cef",
          "blockNumber": "0x9b4cc6",
          "blockTimestamp": "0x6980f3ac",
          "transactionHash": "0x98a3d3c436655184e7ed09bf356988fbd283df3f5ab53ad3ae93c7b2045c3c25",
          "transactionIndex": "0x3a",
          "logIndex": "0x43",
          "removed": false
        },
        {
          "address": "0xfff9976782d46cc05630d1f6ebab18b2324d6b14",
          "topics": [
            "0xddf252ad1be2c89b69c2b068fc378daa952ba7f163c4a11628f55a4df523b3ef",
            "0x000000000000000000000000499c8bb98c1962aa6329b515f918836024ee746f",
            "0x000000000000000000000000e03a1074c86cfedd5c142c4f04f1a1536e203543"
          ],
          "data": "0x000000000000000000000000000000000000000000000000000000000000c350",
          "blockHash": "0x945ed227681ad086a3a9fa02a00b17636483cd92c12da781f3b4b0e2f2267cef",
          "blockNumber": "0x9b4cc6",
          "blockTimestamp": "0x6980f3ac",
          "transactionHash": "0x98a3d3c436655184e7ed09bf356988fbd283df3f5ab53ad3ae93c7b2045c3c25",
          "transactionIndex": "0x3a",
          "logIndex": "0x44",
          "removed": false
        }
      ],
      "logsBloom": "0x00000000001000000000001080000000200000000000000000000000080200000000001000000040080000000000000000000900000004000000000000000000100000000000000000000008000000001000000000000000000080000000000000000000020000000000000080004880000000000000104000000810000020000040000001100008000010100000080000000001000000000000000000200000000024000000000000000000000000000000008000400000000000000000000000000002000000000002000001000000000008800000000000001000000020001000000000000000000010000800000004000000000000010000000000000000",
      "type": "0x2",
      "transactionHash": "0x98a3d3c436655184e7ed09bf356988fbd283df3f5ab53ad3ae93c7b2045c3c25",
      "transactionIndex": "0x3a",
      "blockHash": "0x945ed227681ad086a3a9fa02a00b17636483cd92c12da781f3b4b0e2f2267cef",
      "blockNumber": "0x9b4cc6",
      "gasUsed": "0x7126e",
      "effectiveGasPrice": "0x3ff560ce",
      "from": "0x499c8bb98c1962aa6329b515f918836024ee746f",
      "to": "0x429ba70129df741b2ca2a85bc3a2a3328e5c09b4",
      "contractAddress": null
    }
  ],
  "libraries": [],
  "pending": [],
  "returns": {},
  "timestamp": 1770058670037,
  "chain": 11155111,
  "commit": "a49bed9"
}